{"contracts/FeeManager.sol":{"FeeManager":{"abi":[{"inputs":[{"internalType":"address","name":"fiboToken","type":"address"},{"internalType":"address","name":"orioToken","type":"address"}],"stateMutability":"nonpayable","type":"constructor"},{"inputs":[],"name":"InsufficientFeeBalance","type":"error"},{"inputs":[],"name":"InvalidAmount","type":"error"},{"inputs":[],"name":"InvalidDiscountToken","type":"error"},{"inputs":[],"name":"InvalidFeeParameters","type":"error"},{"inputs":[],"name":"TransferFailed","type":"error"},{"inputs":[],"name":"ZeroAddress","type":"error"},{"anonymous":false,"inputs":[{"indexed":false,"internalType":"address","name":"token","type":"address"},{"indexed":false,"internalType":"uint256","name":"minimumBalance","type":"uint256"}],"name":"DiscountTokenUpdated","type":"event"},{"anonymous":false,"inputs":[{"indexed":false,"internalType":"address","name":"token","type":"address"},{"indexed":false,"internalType":"uint256","name":"amount","type":"uint256"}],"name":"FeeCollected","type":"event"},{"anonymous":false,"inputs":[{"indexed":false,"internalType":"address","name":"token","type":"address"},{"indexed":false,"internalType":"address","name":"recipient","type":"address"},{"indexed":false,"internalType":"uint256","name":"amount","type":"uint256"}],"name":"FeeWithdrawn","type":"event"},{"anonymous":false,"inputs":[{"indexed":false,"internalType":"uint256","name":"newBaseFee","type":"uint256"},{"indexed":false,"internalType":"uint256","name":"newDiscountedFee","type":"uint256"}],"name":"FeesUpdated","type":"event"},{"anonymous":false,"inputs":[{"indexed":false,"internalType":"address","name":"account","type":"address"}],"name":"Paused","type":"event"},{"anonymous":false,"inputs":[{"indexed":true,"internalType":"bytes32","name":"role","type":"bytes32"},{"indexed":true,"internalType":"bytes32","name":"previousAdminRole","type":"bytes32"},{"indexed":true,"internalType":"bytes32","name":"newAdminRole","type":"bytes32"}],"name":"RoleAdminChanged","type":"event"},{"anonymous":false,"inputs":[{"indexed":true,"internalType":"bytes32","name":"role","type":"bytes32"},{"indexed":true,"internalType":"address","name":"account","type":"address"},{"indexed":true,"internalType":"address","name":"sender","type":"address"}],"name":"RoleGranted","type":"event"},{"anonymous":false,"inputs":[{"indexed":true,"internalType":"bytes32","name":"role","type":"bytes32"},{"indexed":true,"internalType":"address","name":"account","type":"address"},{"indexed":true,"internalType":"address","name":"sender","type":"address"}],"name":"RoleRevoked","type":"event"},{"anonymous":false,"inputs":[{"indexed":false,"internalType":"address","name":"account","type":"address"}],"name":"Unpaused","type":"event"},{"inputs":[],"name":"ADMIN_ROLE","outputs":[{"internalType":"bytes32","name":"","type":"bytes32"}],"stateMutability":"view","type":"function"},{"inputs":[],"name":"DEFAULT_ADMIN_ROLE","outputs":[{"internalType":"bytes32","name":"","type":"bytes32"}],"stateMutability":"view","type":"function"},{"inputs":[],"name":"FIBO_TOKEN","outputs":[{"internalType":"address","name":"","type":"address"}],"stateMutability":"view","type":"function"},{"inputs":[],"name":"ORIO_TOKEN","outputs":[{"internalType":"address","name":"","type":"address"}],"stateMutability":"view","type":"function"},{"inputs":[],"name":"baseFee","outputs":[{"internalType":"uint256","name":"","type":"uint256"}],"stateMutability":"view","type":"function"},{"inputs":[{"internalType":"address","name":"user","type":"address"},{"internalType":"uint256","name":"amount","type":"uint256"}],"name":"calculateFee","outputs":[{"internalType":"uint256","name":"","type":"uint256"}],"stateMutability":"view","type":"function"},{"inputs":[{"internalType":"address","name":"","type":"address"}],"name":"collectedFees","outputs":[{"internalType":"uint256","name":"","type":"uint256"}],"stateMutability":"view","type":"function"},{"inputs":[{"internalType":"address","name":"","type":"address"}],"name":"discountTokens","outputs":[{"internalType":"bool","name":"isActive","type":"bool"},{"internalType":"uint256","name":"minimumBalance","type":"uint256"}],"stateMutability":"view","type":"function"},{"inputs":[],"name":"discountedFee","outputs":[{"internalType":"uint256","name":"","type":"uint256"}],"stateMutability":"view","type":"function"},{"inputs":[{"internalType":"bytes32","name":"role","type":"bytes32"}],"name":"getRoleAdmin","outputs":[{"internalType":"bytes32","name":"","type":"bytes32"}],"stateMutability":"view","type":"function"},{"inputs":[{"internalType":"bytes32","name":"role","type":"bytes32"},{"internalType":"address","name":"account","type":"address"}],"name":"grantRole","outputs":[],"stateMutability":"nonpayable","type":"function"},{"inputs":[{"internalType":"bytes32","name":"role","type":"bytes32"},{"internalType":"address","name":"account","type":"address"}],"name":"hasRole","outputs":[{"internalType":"bool","name":"","type":"bool"}],"stateMutability":"view","type":"function"},{"inputs":[{"internalType":"address","name":"user","type":"address"}],"name":"isEligibleForDiscount","outputs":[{"internalType":"bool","name":"","type":"bool"}],"stateMutability":"view","type":"function"},{"inputs":[],"name":"paused","outputs":[{"internalType":"bool","name":"","type":"bool"}],"stateMutability":"view","type":"function"},{"inputs":[{"internalType":"address","name":"token","type":"address"},{"internalType":"uint256","name":"amount","type":"uint256"}],"name":"processFee","outputs":[],"stateMutability":"nonpayable","type":"function"},{"inputs":[{"internalType":"bytes32","name":"role","type":"bytes32"},{"internalType":"address","name":"account","type":"address"}],"name":"renounceRole","outputs":[],"stateMutability":"nonpayable","type":"function"},{"inputs":[{"internalType":"bytes32","name":"role","type":"bytes32"},{"internalType":"address","name":"account","type":"address"}],"name":"revokeRole","outputs":[],"stateMutability":"nonpayable","type":"function"},{"inputs":[{"internalType":"uint256","name":"newBaseFee","type":"uint256"},{"internalType":"uint256","name":"newDiscountedFee","type":"uint256"}],"name":"setFees","outputs":[],"stateMutability":"nonpayable","type":"function"},{"inputs":[{"internalType":"bytes4","name":"interfaceId","type":"bytes4"}],"name":"supportsInterface","outputs":[{"internalType":"bool","name":"","type":"bool"}],"stateMutability":"view","type":"function"},{"inputs":[],"name":"togglePause","outputs":[],"stateMutability":"nonpayable","type":"function"},{"inputs":[{"internalType":"address","name":"token","type":"address"},{"internalType":"uint256","name":"newThreshold","type":"uint256"}],"name":"updateDiscountTokenThreshold","outputs":[],"stateMutability":"nonpayable","type":"function"},{"inputs":[{"internalType":"address","name":"token","type":"address"},{"internalType":"address","name":"recipient","type":"address"},{"internalType":"uint256","name":"amount","type":"uint256"}],"name":"withdrawFees","outputs":[],"stateMutability":"nonpayable","type":"function"}],"evm":{"bytecode":{"linkReferences":{},"object":"60c0604052606460035560326004553480156200001b57600080fd5b5060405162001585380380620015858339810160408190526200003e916200022b565b6001805460ff191681556002556001600160a01b03821615806200006957506001600160a01b038116155b15620000885760405163d92e233d60e01b815260040160405180910390fd5b6001600160a01b03808316608052811660a052620000a86000336200016d565b620000d47fa49807205ce4d355092ef5a8a18f56e8913cf4a201fbe287825b095693c21775336200016d565b5050604080518082018252600180825269152d02c7e14af680000060208084019182526080516001600160a01b03908116600090815260058084528782209651875490151560ff19918216178855945196860196909655865180880188528581526a084595161401484a00000081850190815260a051909316825295909252949020925183549015159116178255915191015562000263565b6000828152602081815260408083206001600160a01b038516845290915290205460ff166200020a576000828152602081815260408083206001600160a01b03851684529091529020805460ff19166001179055620001c93390565b6001600160a01b0316816001600160a01b0316837f2f8788117e7eff1d82e926ec794901d17c78024a50270940304540a733656f0d60405160405180910390a45b5050565b80516001600160a01b03811681146200022657600080fd5b919050565b600080604083850312156200023f57600080fd5b6200024a836200020e565b91506200025a602084016200020e565b90509250929050565b60805160a0516112e0620002a56000396000818161018901528181610598015261085c01526000818161028e0152818161055b01526107b601526112e06000f3fe608060405234801561001057600080fd5b50600436106101425760003560e01c806375b238fc116100b8578063961cb3611161007c578063961cb361146102df578063a217fddf146102f2578063af2926c5146102fa578063c4ae31681461033e578063d547741f14610346578063e55dc4e61461035957600080fd5b806375b238fc1461027457806380483746146102895780638b28ab1e146102b057806391d14854146102c357806392d055ee146102d657600080fd5b806328634b5d1161010a57806328634b5d146102145780632f2ff15d14610227578063363c8a241461023a57806336568abe1461024d5780635c975abb146102605780636ef25c3a1461026b57600080fd5b806301ffc9a7146101475780630b78f9c01461016f5780631975c378146101845780631cead9a7146101c3578063248a9ca3146101f1575b600080fd5b61015a610155366004610f9d565b61036c565b60405190151581526020015b60405180910390f35b61018261017d366004610fc7565b6103a3565b005b6101ab7f000000000000000000000000000000000000000000000000000000000000000081565b6040516001600160a01b039091168152602001610166565b6101e36101d1366004611005565b60066020526000908152604090205481565b604051908152602001610166565b6101e36101ff366004611020565b60009081526020819052604090206001015490565b610182610222366004611039565b61043a565b610182610235366004611063565b61050f565b610182610248366004611039565b610539565b61018261025b366004611063565b61063f565b60015460ff1661015a565b6101e360035481565b6101e360008051602061128b83398151915281565b6101ab7f000000000000000000000000000000000000000000000000000000000000000081565b6101e36102be366004611039565b6106be565b61015a6102d1366004611063565b61075a565b6101e360045481565b61015a6102ed366004611005565b610783565b6101e3600081565b610327610308366004611005565b6005602052600090815260409020805460019091015460ff9091169082565b604080519215158352602083019190915201610166565b6101826108f8565b610182610354366004611063565b61092d565b61018261036736600461108f565b610952565b60006001600160e01b03198216637965db0b60e01b148061039d57506301ffc9a760e01b6001600160e01b03198316145b92915050565b60008051602061128b8339815191526103bb81610b2e565b6103c3610b38565b81831115806103d357506103e883115b156103f157604051634db7e85160e01b815260040160405180910390fd5b6003839055600482905560408051848152602081018490527f5c6323bf1c2d7aaea2c091a4751c1c87af7f2864650c336507a77d0557af37a191015b60405180910390a1505050565b610442610b80565b61044a610b38565b8060000361046b5760405163162908e360e11b815260040160405180910390fd5b6001600160a01b0382166104925760405163d92e233d60e01b815260040160405180910390fd5b6001600160a01b038216600090815260066020526040812080548392906104ba9084906110e1565b9091555050604080516001600160a01b0384168152602081018390527f06c5efeff5c320943d265dc4e5f1af95ad523555ce0c1957e367dda5514572df910160405180910390a161050b6001600255565b5050565b60008281526020819052604090206001015461052a81610b2e565b6105348383610bd7565b505050565b60008051602061128b83398151915261055181610b2e565b610559610b38565b7f00000000000000000000000000000000000000000000000000000000000000006001600160a01b0316836001600160a01b0316141580156105cd57507f00000000000000000000000000000000000000000000000000000000000000006001600160a01b0316836001600160a01b031614155b156105eb5760405163559f47bf60e01b815260040160405180910390fd5b6001600160a01b038316600081815260056020908152604091829020600101859055815192835282018490527fe401b33b1c19cbfd847e10c56980ecb20a2eb62088527dbfd3ff3a3698f38052910161042d565b6001600160a01b03811633146106b45760405162461bcd60e51b815260206004820152602f60248201527f416363657373436f6e74726f6c3a2063616e206f6e6c792072656e6f756e636560448201526e103937b632b9903337b91039b2b63360891b60648201526084015b60405180910390fd5b61050b8282610c5b565b6000816000036106e15760405163162908e360e11b815260040160405180910390fd5b6001600160a01b0383166107085760405163d92e233d60e01b815260040160405180910390fd5b61071183610783565b15610738576127106004548361072791906110f4565b610731919061110b565b905061039d565b6127106003548361074991906110f4565b610753919061110b565b9392505050565b6000918252602082815260408084206001600160a01b0393909316845291905290205460ff1690565b60006001600160a01b0382166107ac5760405163d92e233d60e01b815260040160405180910390fd5b6001600160a01b037f00000000000000000000000000000000000000000000000000000000000000008116600081815260056020526040908190206001015490516370a0823160e01b81529285166004840152916370a0823190602401602060405180830381865afa158015610826573d6000803e3d6000fd5b505050506040513d601f19601f8201168201806040525081019061084a919061112d565b10158061039d57506001600160a01b037f00000000000000000000000000000000000000000000000000000000000000008116600081815260056020526040908190206001015490516370a0823160e01b81529285166004840152916370a0823190602401602060405180830381865afa1580156108cc573d6000803e3d6000fd5b505050506040513d601f19601f820116820180604052508101906108f0919061112d565b101592915050565b60008051602061128b83398151915261091081610b2e565b60015460ff1661092557610922610cc0565b50565b610922610d14565b60008281526020819052604090206001015461094881610b2e565b6105348383610c5b565b60008051602061128b83398151915261096a81610b2e565b610972610b80565b61097a610b38565b6001600160a01b038416158061099757506001600160a01b038316155b156109b55760405163d92e233d60e01b815260040160405180910390fd5b816000036109d65760405163162908e360e11b815260040160405180910390fd5b6001600160a01b038416600090815260066020526040902054821115610a0f57604051637806a4f560e11b815260040160405180910390fd5b6001600160a01b03841660009081526006602052604081208054849290610a37908490611146565b909155505060405163a9059cbb60e01b81526001600160a01b038481166004830152602482018490526000919086169063a9059cbb906044016020604051808303816000875af1158015610a8f573d6000803e3d6000fd5b505050506040513d601f19601f82011682018060405250810190610ab39190611159565b905080610ad3576040516312171d8360e31b815260040160405180910390fd5b604080516001600160a01b038088168252861660208201529081018490527eed5939179dc194223f0edd1517ecee2210b22da7f82c8e4b1795e93b9f06aa9060600160405180910390a150610b286001600255565b50505050565b6109228133610d4d565b60015460ff1615610b7e5760405162461bcd60e51b815260206004820152601060248201526f14185d5cd8589b194e881c185d5cd95960821b60448201526064016106ab565b565b6002805403610bd15760405162461bcd60e51b815260206004820152601f60248201527f5265656e7472616e637947756172643a207265656e7472616e742063616c6c0060448201526064016106ab565b60028055565b610be1828261075a565b61050b576000828152602081815260408083206001600160a01b03851684529091529020805460ff19166001179055610c173390565b6001600160a01b0316816001600160a01b0316837f2f8788117e7eff1d82e926ec794901d17c78024a50270940304540a733656f0d60405160405180910390a45050565b610c65828261075a565b1561050b576000828152602081815260408083206001600160a01b0385168085529252808320805460ff1916905551339285917ff6391f5c32d9c69d2a47ea670b442974b53935d1edc7fd64eb21e047a839171b9190a45050565b610cc8610b38565b6001805460ff1916811790557f62e78cea01bee320cd4e420270b5ea74000d11b0c9f74754ebdbfc544b05a258335b6040516001600160a01b03909116815260200160405180910390a1565b610d1c610da6565b6001805460ff191690557f5db9ee0a495bf2e6ff9c91a7834c1ba4fdd244a5e8aa4e537bd38aeae4b073aa33610cf7565b610d57828261075a565b61050b57610d6481610def565b610d6f836020610e01565b604051602001610d8092919061119f565b60408051601f198184030181529082905262461bcd60e51b82526106ab91600401611214565b60015460ff16610b7e5760405162461bcd60e51b815260206004820152601460248201527314185d5cd8589b194e881b9bdd081c185d5cd95960621b60448201526064016106ab565b606061039d6001600160a01b03831660145b60606000610e108360026110f4565b610e1b9060026110e1565b67ffffffffffffffff811115610e3357610e33611247565b6040519080825280601f01601f191660200182016040528015610e5d576020820181803683370190505b509050600360fc1b81600081518110610e7857610e7861125d565b60200101906001600160f81b031916908160001a905350600f60fb1b81600181518110610ea757610ea761125d565b60200101906001600160f81b031916908160001a9053506000610ecb8460026110f4565b610ed69060016110e1565b90505b6001811115610f4e576f181899199a1a9b1b9c1cb0b131b232b360811b85600f1660108110610f0a57610f0a61125d565b1a60f81b828281518110610f2057610f2061125d565b60200101906001600160f81b031916908160001a90535060049490941c93610f4781611273565b9050610ed9565b5083156107535760405162461bcd60e51b815260206004820181905260248201527f537472696e67733a20686578206c656e67746820696e73756666696369656e7460448201526064016106ab565b600060208284031215610faf57600080fd5b81356001600160e01b03198116811461075357600080fd5b60008060408385031215610fda57600080fd5b50508035926020909101359150565b80356001600160a01b038116811461100057600080fd5b919050565b60006020828403121561101757600080fd5b61075382610fe9565b60006020828403121561103257600080fd5b5035919050565b6000806040838503121561104c57600080fd5b61105583610fe9565b946020939093013593505050565b6000806040838503121561107657600080fd5b8235915061108660208401610fe9565b90509250929050565b6000806000606084860312156110a457600080fd5b6110ad84610fe9565b92506110bb60208501610fe9565b9150604084013590509250925092565b634e487b7160e01b600052601160045260246000fd5b8082018082111561039d5761039d6110cb565b808202811582820484141761039d5761039d6110cb565b60008261112857634e487b7160e01b600052601260045260246000fd5b500490565b60006020828403121561113f57600080fd5b5051919050565b8181038181111561039d5761039d6110cb565b60006020828403121561116b57600080fd5b8151801515811461075357600080fd5b60005b8381101561119657818101518382015260200161117e565b50506000910152565b7f416363657373436f6e74726f6c3a206163636f756e74200000000000000000008152600083516111d781601785016020880161117b565b7001034b99036b4b9b9b4b733903937b6329607d1b601791840191820152835161120881602884016020880161117b565b01602801949350505050565b602081526000825180602084015261123381604085016020870161117b565b601f01601f19169190910160400192915050565b634e487b7160e01b600052604160045260246000fd5b634e487b7160e01b600052603260045260246000fd5b600081611282576112826110cb565b50600019019056fea49807205ce4d355092ef5a8a18f56e8913cf4a201fbe287825b095693c21775a2646970667358221220835491550899980e5107416980a80facabce7f2ea2b7530c79c74b2341f5a8c364736f6c63430008130033","opcodes":"PUSH1 0xC0 PUSH1 0x40 MSTORE PUSH1 0x64 PUSH1 0x3 SSTORE PUSH1 0x32 PUSH1 0x4 SSTORE CALLVALUE DUP1 ISZERO PUSH3 0x1B JUMPI PUSH1 0x0 DUP1 REVERT JUMPDEST POP PUSH1 0x40 MLOAD PUSH3 0x1585 CODESIZE SUB DUP1 PUSH3 0x1585 DUP4 CODECOPY DUP2 ADD PUSH1 0x40 DUP2 SWAP1 MSTORE PUSH3 0x3E SWAP2 PUSH3 0x22B JUMP JUMPDEST PUSH1 0x1 DUP1 SLOAD PUSH1 0xFF NOT AND DUP2 SSTORE PUSH1 0x2 SSTORE PUSH1 0x1 PUSH1 0x1 PUSH1 0xA0 SHL SUB DUP3 AND ISZERO DUP1 PUSH3 0x69 JUMPI POP PUSH1 0x1 PUSH1 0x1 PUSH1 0xA0 SHL SUB DUP2 AND ISZERO JUMPDEST ISZERO PUSH3 0x88 JUMPI PUSH1 0x40 MLOAD PUSH4 0xD92E233D PUSH1 0xE0 SHL DUP2 MSTORE PUSH1 0x4 ADD PUSH1 0x40 MLOAD DUP1 SWAP2 SUB SWAP1 REVERT JUMPDEST PUSH1 0x1 PUSH1 0x1 PUSH1 0xA0 SHL SUB DUP1 DUP4 AND PUSH1 0x80 MSTORE DUP2 AND PUSH1 0xA0 MSTORE PUSH3 0xA8 PUSH1 0x0 CALLER PUSH3 0x16D JUMP JUMPDEST PUSH3 0xD4 PUSH32 0xA49807205CE4D355092EF5A8A18F56E8913CF4A201FBE287825B095693C21775 CALLER PUSH3 0x16D JUMP JUMPDEST POP POP PUSH1 0x40 DUP1 MLOAD DUP1 DUP3 ADD DUP3 MSTORE PUSH1 0x1 DUP1 DUP3 MSTORE PUSH10 0x152D02C7E14AF6800000 PUSH1 0x20 DUP1 DUP5 ADD SWAP2 DUP3 MSTORE PUSH1 0x80 MLOAD PUSH1 0x1 PUSH1 0x1 PUSH1 0xA0 SHL SUB SWAP1 DUP2 AND PUSH1 0x0 SWAP1 DUP2 MSTORE PUSH1 0x5 DUP1 DUP5 MSTORE DUP8 DUP3 KECCAK256 SWAP7 MLOAD DUP8 SLOAD SWAP1 ISZERO ISZERO PUSH1 0xFF NOT SWAP2 DUP3 AND OR DUP9 SSTORE SWAP5 MLOAD SWAP7 DUP7 ADD SWAP7 SWAP1 SWAP7 SSTORE DUP7 MLOAD DUP1 DUP9 ADD DUP9 MSTORE DUP6 DUP2 MSTORE PUSH11 0x84595161401484A000000 DUP2 DUP6 ADD SWAP1 DUP2 MSTORE PUSH1 0xA0 MLOAD SWAP1 SWAP4 AND DUP3 MSTORE SWAP6 SWAP1 SWAP3 MSTORE SWAP5 SWAP1 KECCAK256 SWAP3 MLOAD DUP4 SLOAD SWAP1 ISZERO ISZERO SWAP2 AND OR DUP3 SSTORE SWAP2 MLOAD SWAP2 ADD SSTORE PUSH3 0x263 JUMP JUMPDEST PUSH1 0x0 DUP3 DUP2 MSTORE PUSH1 0x20 DUP2 DUP2 MSTORE PUSH1 0x40 DUP1 DUP4 KECCAK256 PUSH1 0x1 PUSH1 0x1 PUSH1 0xA0 SHL SUB DUP6 AND DUP5 MSTORE SWAP1 SWAP2 MSTORE SWAP1 KECCAK256 SLOAD PUSH1 0xFF AND PUSH3 0x20A JUMPI PUSH1 0x0 DUP3 DUP2 MSTORE PUSH1 0x20 DUP2 DUP2 MSTORE PUSH1 0x40 DUP1 DUP4 KECCAK256 PUSH1 0x1 PUSH1 0x1 PUSH1 0xA0 SHL SUB DUP6 AND DUP5 MSTORE SWAP1 SWAP2 MSTORE SWAP1 KECCAK256 DUP1 SLOAD PUSH1 0xFF NOT AND PUSH1 0x1 OR SWAP1 SSTORE PUSH3 0x1C9 CALLER SWAP1 JUMP JUMPDEST PUSH1 0x1 PUSH1 0x1 PUSH1 0xA0 SHL SUB AND DUP2 PUSH1 0x1 PUSH1 0x1 PUSH1 0xA0 SHL SUB AND DUP4 PUSH32 0x2F8788117E7EFF1D82E926EC794901D17C78024A50270940304540A733656F0D PUSH1 0x40 MLOAD PUSH1 0x40 MLOAD DUP1 SWAP2 SUB SWAP1 LOG4 JUMPDEST POP POP JUMP JUMPDEST DUP1 MLOAD PUSH1 0x1 PUSH1 0x1 PUSH1 0xA0 SHL SUB DUP2 AND DUP2 EQ PUSH3 0x226 JUMPI PUSH1 0x0 DUP1 REVERT JUMPDEST SWAP2 SWAP1 POP JUMP JUMPDEST PUSH1 0x0 DUP1 PUSH1 0x40 DUP4 DUP6 SUB SLT ISZERO PUSH3 0x23F JUMPI PUSH1 0x0 DUP1 REVERT JUMPDEST PUSH3 0x24A DUP4 PUSH3 0x20E JUMP JUMPDEST SWAP2 POP PUSH3 0x25A PUSH1 0x20 DUP5 ADD PUSH3 0x20E JUMP JUMPDEST SWAP1 POP SWAP3 POP SWAP3 SWAP1 POP JUMP JUMPDEST PUSH1 0x80 MLOAD PUSH1 0xA0 MLOAD PUSH2 0x12E0 PUSH3 0x2A5 PUSH1 0x0 CODECOPY PUSH1 0x0 DUP2 DUP2 PUSH2 0x189 ADD MSTORE DUP2 DUP2 PUSH2 0x598 ADD MSTORE PUSH2 0x85C ADD MSTORE PUSH1 0x0 DUP2 DUP2 PUSH2 0x28E ADD MSTORE DUP2 DUP2 PUSH2 0x55B ADD MSTORE PUSH2 0x7B6 ADD MSTORE PUSH2 0x12E0 PUSH1 0x0 RETURN INVALID PUSH1 0x80 PUSH1 0x40 MSTORE CALLVALUE DUP1 ISZERO PUSH2 0x10 JUMPI PUSH1 0x0 DUP1 REVERT JUMPDEST POP PUSH1 0x4 CALLDATASIZE LT PUSH2 0x142 JUMPI PUSH1 0x0 CALLDATALOAD PUSH1 0xE0 SHR DUP1 PUSH4 0x75B238FC GT PUSH2 0xB8 JUMPI DUP1 PUSH4 0x961CB361 GT PUSH2 0x7C JUMPI DUP1 PUSH4 0x961CB361 EQ PUSH2 0x2DF JUMPI DUP1 PUSH4 0xA217FDDF EQ PUSH2 0x2F2 JUMPI DUP1 PUSH4 0xAF2926C5 EQ PUSH2 0x2FA JUMPI DUP1 PUSH4 0xC4AE3168 EQ PUSH2 0x33E JUMPI DUP1 PUSH4 0xD547741F EQ PUSH2 0x346 JUMPI DUP1 PUSH4 0xE55DC4E6 EQ PUSH2 0x359 JUMPI PUSH1 0x0 DUP1 REVERT JUMPDEST DUP1 PUSH4 0x75B238FC EQ PUSH2 0x274 JUMPI DUP1 PUSH4 0x80483746 EQ PUSH2 0x289 JUMPI DUP1 PUSH4 0x8B28AB1E EQ PUSH2 0x2B0 JUMPI DUP1 PUSH4 0x91D14854 EQ PUSH2 0x2C3 JUMPI DUP1 PUSH4 0x92D055EE EQ PUSH2 0x2D6 JUMPI PUSH1 0x0 DUP1 REVERT JUMPDEST DUP1 PUSH4 0x28634B5D GT PUSH2 0x10A JUMPI DUP1 PUSH4 0x28634B5D EQ PUSH2 0x214 JUMPI DUP1 PUSH4 0x2F2FF15D EQ PUSH2 0x227 JUMPI DUP1 PUSH4 0x363C8A24 EQ PUSH2 0x23A JUMPI DUP1 PUSH4 0x36568ABE EQ PUSH2 0x24D JUMPI DUP1 PUSH4 0x5C975ABB EQ PUSH2 0x260 JUMPI DUP1 PUSH4 0x6EF25C3A EQ PUSH2 0x26B JUMPI PUSH1 0x0 DUP1 REVERT JUMPDEST DUP1 PUSH4 0x1FFC9A7 EQ PUSH2 0x147 JUMPI DUP1 PUSH4 0xB78F9C0 EQ PUSH2 0x16F JUMPI DUP1 PUSH4 0x1975C378 EQ PUSH2 0x184 JUMPI DUP1 PUSH4 0x1CEAD9A7 EQ PUSH2 0x1C3 JUMPI DUP1 PUSH4 0x248A9CA3 EQ PUSH2 0x1F1 JUMPI JUMPDEST PUSH1 0x0 DUP1 REVERT JUMPDEST PUSH2 0x15A PUSH2 0x155 CALLDATASIZE PUSH1 0x4 PUSH2 0xF9D JUMP JUMPDEST PUSH2 0x36C JUMP JUMPDEST PUSH1 0x40 MLOAD SWAP1 ISZERO ISZERO DUP2 MSTORE PUSH1 0x20 ADD JUMPDEST PUSH1 0x40 MLOAD DUP1 SWAP2 SUB SWAP1 RETURN JUMPDEST PUSH2 0x182 PUSH2 0x17D CALLDATASIZE PUSH1 0x4 PUSH2 0xFC7 JUMP JUMPDEST PUSH2 0x3A3 JUMP JUMPDEST STOP JUMPDEST PUSH2 0x1AB PUSH32 0x0 DUP2 JUMP JUMPDEST PUSH1 0x40 MLOAD PUSH1 0x1 PUSH1 0x1 PUSH1 0xA0 SHL SUB SWAP1 SWAP2 AND DUP2 MSTORE PUSH1 0x20 ADD PUSH2 0x166 JUMP JUMPDEST PUSH2 0x1E3 PUSH2 0x1D1 CALLDATASIZE PUSH1 0x4 PUSH2 0x1005 JUMP JUMPDEST PUSH1 0x6 PUSH1 0x20 MSTORE PUSH1 0x0 SWAP1 DUP2 MSTORE PUSH1 0x40 SWAP1 KECCAK256 SLOAD DUP2 JUMP JUMPDEST PUSH1 0x40 MLOAD SWAP1 DUP2 MSTORE PUSH1 0x20 ADD PUSH2 0x166 JUMP JUMPDEST PUSH2 0x1E3 PUSH2 0x1FF CALLDATASIZE PUSH1 0x4 PUSH2 0x1020 JUMP JUMPDEST PUSH1 0x0 SWAP1 DUP2 MSTORE PUSH1 0x20 DUP2 SWAP1 MSTORE PUSH1 0x40 SWAP1 KECCAK256 PUSH1 0x1 ADD SLOAD SWAP1 JUMP JUMPDEST PUSH2 0x182 PUSH2 0x222 CALLDATASIZE PUSH1 0x4 PUSH2 0x1039 JUMP JUMPDEST PUSH2 0x43A JUMP JUMPDEST PUSH2 0x182 PUSH2 0x235 CALLDATASIZE PUSH1 0x4 PUSH2 0x1063 JUMP JUMPDEST PUSH2 0x50F JUMP JUMPDEST PUSH2 0x182 PUSH2 0x248 CALLDATASIZE PUSH1 0x4 PUSH2 0x1039 JUMP JUMPDEST PUSH2 0x539 JUMP JUMPDEST PUSH2 0x182 PUSH2 0x25B CALLDATASIZE PUSH1 0x4 PUSH2 0x1063 JUMP JUMPDEST PUSH2 0x63F JUMP JUMPDEST PUSH1 0x1 SLOAD PUSH1 0xFF AND PUSH2 0x15A JUMP JUMPDEST PUSH2 0x1E3 PUSH1 0x3 SLOAD DUP2 JUMP JUMPDEST PUSH2 0x1E3 PUSH1 0x0 DUP1 MLOAD PUSH1 0x20 PUSH2 0x128B DUP4 CODECOPY DUP2 MLOAD SWAP2 MSTORE DUP2 JUMP JUMPDEST PUSH2 0x1AB PUSH32 0x0 DUP2 JUMP JUMPDEST PUSH2 0x1E3 PUSH2 0x2BE CALLDATASIZE PUSH1 0x4 PUSH2 0x1039 JUMP JUMPDEST PUSH2 0x6BE JUMP JUMPDEST PUSH2 0x15A PUSH2 0x2D1 CALLDATASIZE PUSH1 0x4 PUSH2 0x1063 JUMP JUMPDEST PUSH2 0x75A JUMP JUMPDEST PUSH2 0x1E3 PUSH1 0x4 SLOAD DUP2 JUMP JUMPDEST PUSH2 0x15A PUSH2 0x2ED CALLDATASIZE PUSH1 0x4 PUSH2 0x1005 JUMP JUMPDEST PUSH2 0x783 JUMP JUMPDEST PUSH2 0x1E3 PUSH1 0x0 DUP2 JUMP JUMPDEST PUSH2 0x327 PUSH2 0x308 CALLDATASIZE PUSH1 0x4 PUSH2 0x1005 JUMP JUMPDEST PUSH1 0x5 PUSH1 0x20 MSTORE PUSH1 0x0 SWAP1 DUP2 MSTORE PUSH1 0x40 SWAP1 KECCAK256 DUP1 SLOAD PUSH1 0x1 SWAP1 SWAP2 ADD SLOAD PUSH1 0xFF SWAP1 SWAP2 AND SWAP1 DUP3 JUMP JUMPDEST PUSH1 0x40 DUP1 MLOAD SWAP3 ISZERO ISZERO DUP4 MSTORE PUSH1 0x20 DUP4 ADD SWAP2 SWAP1 SWAP2 MSTORE ADD PUSH2 0x166 JUMP JUMPDEST PUSH2 0x182 PUSH2 0x8F8 JUMP JUMPDEST PUSH2 0x182 PUSH2 0x354 CALLDATASIZE PUSH1 0x4 PUSH2 0x1063 JUMP JUMPDEST PUSH2 0x92D JUMP JUMPDEST PUSH2 0x182 PUSH2 0x367 CALLDATASIZE PUSH1 0x4 PUSH2 0x108F JUMP JUMPDEST PUSH2 0x952 JUMP JUMPDEST PUSH1 0x0 PUSH1 0x1 PUSH1 0x1 PUSH1 0xE0 SHL SUB NOT DUP3 AND PUSH4 0x7965DB0B PUSH1 0xE0 SHL EQ DUP1 PUSH2 0x39D JUMPI POP PUSH4 0x1FFC9A7 PUSH1 0xE0 SHL PUSH1 0x1 PUSH1 0x1 PUSH1 0xE0 SHL SUB NOT DUP4 AND EQ JUMPDEST SWAP3 SWAP2 POP POP JUMP JUMPDEST PUSH1 0x0 DUP1 MLOAD PUSH1 0x20 PUSH2 0x128B DUP4 CODECOPY DUP2 MLOAD SWAP2 MSTORE PUSH2 0x3BB DUP2 PUSH2 0xB2E JUMP JUMPDEST PUSH2 0x3C3 PUSH2 0xB38 JUMP JUMPDEST DUP2 DUP4 GT ISZERO DUP1 PUSH2 0x3D3 JUMPI POP PUSH2 0x3E8 DUP4 GT JUMPDEST ISZERO PUSH2 0x3F1 JUMPI PUSH1 0x40 MLOAD PUSH4 0x4DB7E851 PUSH1 0xE0 SHL DUP2 MSTORE PUSH1 0x4 ADD PUSH1 0x40 MLOAD DUP1 SWAP2 SUB SWAP1 REVERT JUMPDEST PUSH1 0x3 DUP4 SWAP1 SSTORE PUSH1 0x4 DUP3 SWAP1 SSTORE PUSH1 0x40 DUP1 MLOAD DUP5 DUP2 MSTORE PUSH1 0x20 DUP2 ADD DUP5 SWAP1 MSTORE PUSH32 0x5C6323BF1C2D7AAEA2C091A4751C1C87AF7F2864650C336507A77D0557AF37A1 SWAP2 ADD JUMPDEST PUSH1 0x40 MLOAD DUP1 SWAP2 SUB SWAP1 LOG1 POP POP POP JUMP JUMPDEST PUSH2 0x442 PUSH2 0xB80 JUMP JUMPDEST PUSH2 0x44A PUSH2 0xB38 JUMP JUMPDEST DUP1 PUSH1 0x0 SUB PUSH2 0x46B JUMPI PUSH1 0x40 MLOAD PUSH4 0x162908E3 PUSH1 0xE1 SHL DUP2 MSTORE PUSH1 0x4 ADD PUSH1 0x40 MLOAD DUP1 SWAP2 SUB SWAP1 REVERT JUMPDEST PUSH1 0x1 PUSH1 0x1 PUSH1 0xA0 SHL SUB DUP3 AND PUSH2 0x492 JUMPI PUSH1 0x40 MLOAD PUSH4 0xD92E233D PUSH1 0xE0 SHL DUP2 MSTORE PUSH1 0x4 ADD PUSH1 0x40 MLOAD DUP1 SWAP2 SUB SWAP1 REVERT JUMPDEST PUSH1 0x1 PUSH1 0x1 PUSH1 0xA0 SHL SUB DUP3 AND PUSH1 0x0 SWAP1 DUP2 MSTORE PUSH1 0x6 PUSH1 0x20 MSTORE PUSH1 0x40 DUP2 KECCAK256 DUP1 SLOAD DUP4 SWAP3 SWAP1 PUSH2 0x4BA SWAP1 DUP5 SWAP1 PUSH2 0x10E1 JUMP JUMPDEST SWAP1 SWAP2 SSTORE POP POP PUSH1 0x40 DUP1 MLOAD PUSH1 0x1 PUSH1 0x1 PUSH1 0xA0 SHL SUB DUP5 AND DUP2 MSTORE PUSH1 0x20 DUP2 ADD DUP4 SWAP1 MSTORE PUSH32 0x6C5EFEFF5C320943D265DC4E5F1AF95AD523555CE0C1957E367DDA5514572DF SWAP2 ADD PUSH1 0x40 MLOAD DUP1 SWAP2 SUB SWAP1 LOG1 PUSH2 0x50B PUSH1 0x1 PUSH1 0x2 SSTORE JUMP JUMPDEST POP POP JUMP JUMPDEST PUSH1 0x0 DUP3 DUP2 MSTORE PUSH1 0x20 DUP2 SWAP1 MSTORE PUSH1 0x40 SWAP1 KECCAK256 PUSH1 0x1 ADD SLOAD PUSH2 0x52A DUP2 PUSH2 0xB2E JUMP JUMPDEST PUSH2 0x534 DUP4 DUP4 PUSH2 0xBD7 JUMP JUMPDEST POP POP POP JUMP JUMPDEST PUSH1 0x0 DUP1 MLOAD PUSH1 0x20 PUSH2 0x128B DUP4 CODECOPY DUP2 MLOAD SWAP2 MSTORE PUSH2 0x551 DUP2 PUSH2 0xB2E JUMP JUMPDEST PUSH2 0x559 PUSH2 0xB38 JUMP JUMPDEST PUSH32 0x0 PUSH1 0x1 PUSH1 0x1 PUSH1 0xA0 SHL SUB AND DUP4 PUSH1 0x1 PUSH1 0x1 PUSH1 0xA0 SHL SUB AND EQ ISZERO DUP1 ISZERO PUSH2 0x5CD JUMPI POP PUSH32 0x0 PUSH1 0x1 PUSH1 0x1 PUSH1 0xA0 SHL SUB AND DUP4 PUSH1 0x1 PUSH1 0x1 PUSH1 0xA0 SHL SUB AND EQ ISZERO JUMPDEST ISZERO PUSH2 0x5EB JUMPI PUSH1 0x40 MLOAD PUSH4 0x559F47BF PUSH1 0xE0 SHL DUP2 MSTORE PUSH1 0x4 ADD PUSH1 0x40 MLOAD DUP1 SWAP2 SUB SWAP1 REVERT JUMPDEST PUSH1 0x1 PUSH1 0x1 PUSH1 0xA0 SHL SUB DUP4 AND PUSH1 0x0 DUP2 DUP2 MSTORE PUSH1 0x5 PUSH1 0x20 SWAP1 DUP2 MSTORE PUSH1 0x40 SWAP2 DUP3 SWAP1 KECCAK256 PUSH1 0x1 ADD DUP6 SWAP1 SSTORE DUP2 MLOAD SWAP3 DUP4 MSTORE DUP3 ADD DUP5 SWAP1 MSTORE PUSH32 0xE401B33B1C19CBFD847E10C56980ECB20A2EB62088527DBFD3FF3A3698F38052 SWAP2 ADD PUSH2 0x42D JUMP JUMPDEST PUSH1 0x1 PUSH1 0x1 PUSH1 0xA0 SHL SUB DUP2 AND CALLER EQ PUSH2 0x6B4 JUMPI PUSH1 0x40 MLOAD PUSH3 0x461BCD PUSH1 0xE5 SHL DUP2 MSTORE PUSH1 0x20 PUSH1 0x4 DUP3 ADD MSTORE PUSH1 0x2F PUSH1 0x24 DUP3 ADD MSTORE PUSH32 0x416363657373436F6E74726F6C3A2063616E206F6E6C792072656E6F756E6365 PUSH1 0x44 DUP3 ADD MSTORE PUSH15 0x103937B632B9903337B91039B2B633 PUSH1 0x89 SHL PUSH1 0x64 DUP3 ADD MSTORE PUSH1 0x84 ADD JUMPDEST PUSH1 0x40 MLOAD DUP1 SWAP2 SUB SWAP1 REVERT JUMPDEST PUSH2 0x50B DUP3 DUP3 PUSH2 0xC5B JUMP JUMPDEST PUSH1 0x0 DUP2 PUSH1 0x0 SUB PUSH2 0x6E1 JUMPI PUSH1 0x40 MLOAD PUSH4 0x162908E3 PUSH1 0xE1 SHL DUP2 MSTORE PUSH1 0x4 ADD PUSH1 0x40 MLOAD DUP1 SWAP2 SUB SWAP1 REVERT JUMPDEST PUSH1 0x1 PUSH1 0x1 PUSH1 0xA0 SHL SUB DUP4 AND PUSH2 0x708 JUMPI PUSH1 0x40 MLOAD PUSH4 0xD92E233D PUSH1 0xE0 SHL DUP2 MSTORE PUSH1 0x4 ADD PUSH1 0x40 MLOAD DUP1 SWAP2 SUB SWAP1 REVERT JUMPDEST PUSH2 0x711 DUP4 PUSH2 0x783 JUMP JUMPDEST ISZERO PUSH2 0x738 JUMPI PUSH2 0x2710 PUSH1 0x4 SLOAD DUP4 PUSH2 0x727 SWAP2 SWAP1 PUSH2 0x10F4 JUMP JUMPDEST PUSH2 0x731 SWAP2 SWAP1 PUSH2 0x110B JUMP JUMPDEST SWAP1 POP PUSH2 0x39D JUMP JUMPDEST PUSH2 0x2710 PUSH1 0x3 SLOAD DUP4 PUSH2 0x749 SWAP2 SWAP1 PUSH2 0x10F4 JUMP JUMPDEST PUSH2 0x753 SWAP2 SWAP1 PUSH2 0x110B JUMP JUMPDEST SWAP4 SWAP3 POP POP POP JUMP JUMPDEST PUSH1 0x0 SWAP2 DUP3 MSTORE PUSH1 0x20 DUP3 DUP2 MSTORE PUSH1 0x40 DUP1 DUP5 KECCAK256 PUSH1 0x1 PUSH1 0x1 PUSH1 0xA0 SHL SUB SWAP4 SWAP1 SWAP4 AND DUP5 MSTORE SWAP2 SWAP1 MSTORE SWAP1 KECCAK256 SLOAD PUSH1 0xFF AND SWAP1 JUMP JUMPDEST PUSH1 0x0 PUSH1 0x1 PUSH1 0x1 PUSH1 0xA0 SHL SUB DUP3 AND PUSH2 0x7AC JUMPI PUSH1 0x40 MLOAD PUSH4 0xD92E233D PUSH1 0xE0 SHL DUP2 MSTORE PUSH1 0x4 ADD PUSH1 0x40 MLOAD DUP1 SWAP2 SUB SWAP1 REVERT JUMPDEST PUSH1 0x1 PUSH1 0x1 PUSH1 0xA0 SHL SUB PUSH32 0x0 DUP2 AND PUSH1 0x0 DUP2 DUP2 MSTORE PUSH1 0x5 PUSH1 0x20 MSTORE PUSH1 0x40 SWAP1 DUP2 SWAP1 KECCAK256 PUSH1 0x1 ADD SLOAD SWAP1 MLOAD PUSH4 0x70A08231 PUSH1 0xE0 SHL DUP2 MSTORE SWAP3 DUP6 AND PUSH1 0x4 DUP5 ADD MSTORE SWAP2 PUSH4 0x70A08231 SWAP1 PUSH1 0x24 ADD PUSH1 0x20 PUSH1 0x40 MLOAD DUP1 DUP4 SUB DUP2 DUP7 GAS STATICCALL ISZERO DUP1 ISZERO PUSH2 0x826 JUMPI RETURNDATASIZE PUSH1 0x0 DUP1 RETURNDATACOPY RETURNDATASIZE PUSH1 0x0 REVERT JUMPDEST POP POP POP POP PUSH1 0x40 MLOAD RETURNDATASIZE PUSH1 0x1F NOT PUSH1 0x1F DUP3 ADD AND DUP3 ADD DUP1 PUSH1 0x40 MSTORE POP DUP2 ADD SWAP1 PUSH2 0x84A SWAP2 SWAP1 PUSH2 0x112D JUMP JUMPDEST LT ISZERO DUP1 PUSH2 0x39D JUMPI POP PUSH1 0x1 PUSH1 0x1 PUSH1 0xA0 SHL SUB PUSH32 0x0 DUP2 AND PUSH1 0x0 DUP2 DUP2 MSTORE PUSH1 0x5 PUSH1 0x20 MSTORE PUSH1 0x40 SWAP1 DUP2 SWAP1 KECCAK256 PUSH1 0x1 ADD SLOAD SWAP1 MLOAD PUSH4 0x70A08231 PUSH1 0xE0 SHL DUP2 MSTORE SWAP3 DUP6 AND PUSH1 0x4 DUP5 ADD MSTORE SWAP2 PUSH4 0x70A08231 SWAP1 PUSH1 0x24 ADD PUSH1 0x20 PUSH1 0x40 MLOAD DUP1 DUP4 SUB DUP2 DUP7 GAS STATICCALL ISZERO DUP1 ISZERO PUSH2 0x8CC JUMPI RETURNDATASIZE PUSH1 0x0 DUP1 RETURNDATACOPY RETURNDATASIZE PUSH1 0x0 REVERT JUMPDEST POP POP POP POP PUSH1 0x40 MLOAD RETURNDATASIZE PUSH1 0x1F NOT PUSH1 0x1F DUP3 ADD AND DUP3 ADD DUP1 PUSH1 0x40 MSTORE POP DUP2 ADD SWAP1 PUSH2 0x8F0 SWAP2 SWAP1 PUSH2 0x112D JUMP JUMPDEST LT ISZERO SWAP3 SWAP2 POP POP JUMP JUMPDEST PUSH1 0x0 DUP1 MLOAD PUSH1 0x20 PUSH2 0x128B DUP4 CODECOPY DUP2 MLOAD SWAP2 MSTORE PUSH2 0x910 DUP2 PUSH2 0xB2E JUMP JUMPDEST PUSH1 0x1 SLOAD PUSH1 0xFF AND PUSH2 0x925 JUMPI PUSH2 0x922 PUSH2 0xCC0 JUMP JUMPDEST POP JUMP JUMPDEST PUSH2 0x922 PUSH2 0xD14 JUMP JUMPDEST PUSH1 0x0 DUP3 DUP2 MSTORE PUSH1 0x20 DUP2 SWAP1 MSTORE PUSH1 0x40 SWAP1 KECCAK256 PUSH1 0x1 ADD SLOAD PUSH2 0x948 DUP2 PUSH2 0xB2E JUMP JUMPDEST PUSH2 0x534 DUP4 DUP4 PUSH2 0xC5B JUMP JUMPDEST PUSH1 0x0 DUP1 MLOAD PUSH1 0x20 PUSH2 0x128B DUP4 CODECOPY DUP2 MLOAD SWAP2 MSTORE PUSH2 0x96A DUP2 PUSH2 0xB2E JUMP JUMPDEST PUSH2 0x972 PUSH2 0xB80 JUMP JUMPDEST PUSH2 0x97A PUSH2 0xB38 JUMP JUMPDEST PUSH1 0x1 PUSH1 0x1 PUSH1 0xA0 SHL SUB DUP5 AND ISZERO DUP1 PUSH2 0x997 JUMPI POP PUSH1 0x1 PUSH1 0x1 PUSH1 0xA0 SHL SUB DUP4 AND ISZERO JUMPDEST ISZERO PUSH2 0x9B5 JUMPI PUSH1 0x40 MLOAD PUSH4 0xD92E233D PUSH1 0xE0 SHL DUP2 MSTORE PUSH1 0x4 ADD PUSH1 0x40 MLOAD DUP1 SWAP2 SUB SWAP1 REVERT JUMPDEST DUP2 PUSH1 0x0 SUB PUSH2 0x9D6 JUMPI PUSH1 0x40 MLOAD PUSH4 0x162908E3 PUSH1 0xE1 SHL DUP2 MSTORE PUSH1 0x4 ADD PUSH1 0x40 MLOAD DUP1 SWAP2 SUB SWAP1 REVERT JUMPDEST PUSH1 0x1 PUSH1 0x1 PUSH1 0xA0 SHL SUB DUP5 AND PUSH1 0x0 SWAP1 DUP2 MSTORE PUSH1 0x6 PUSH1 0x20 MSTORE PUSH1 0x40 SWAP1 KECCAK256 SLOAD DUP3 GT ISZERO PUSH2 0xA0F JUMPI PUSH1 0x40 MLOAD PUSH4 0x7806A4F5 PUSH1 0xE1 SHL DUP2 MSTORE PUSH1 0x4 ADD PUSH1 0x40 MLOAD DUP1 SWAP2 SUB SWAP1 REVERT JUMPDEST PUSH1 0x1 PUSH1 0x1 PUSH1 0xA0 SHL SUB DUP5 AND PUSH1 0x0 SWAP1 DUP2 MSTORE PUSH1 0x6 PUSH1 0x20 MSTORE PUSH1 0x40 DUP2 KECCAK256 DUP1 SLOAD DUP5 SWAP3 SWAP1 PUSH2 0xA37 SWAP1 DUP5 SWAP1 PUSH2 0x1146 JUMP JUMPDEST SWAP1 SWAP2 SSTORE POP POP PUSH1 0x40 MLOAD PUSH4 0xA9059CBB PUSH1 0xE0 SHL DUP2 MSTORE PUSH1 0x1 PUSH1 0x1 PUSH1 0xA0 SHL SUB DUP5 DUP2 AND PUSH1 0x4 DUP4 ADD MSTORE PUSH1 0x24 DUP3 ADD DUP5 SWAP1 MSTORE PUSH1 0x0 SWAP2 SWAP1 DUP7 AND SWAP1 PUSH4 0xA9059CBB SWAP1 PUSH1 0x44 ADD PUSH1 0x20 PUSH1 0x40 MLOAD DUP1 DUP4 SUB DUP2 PUSH1 0x0 DUP8 GAS CALL ISZERO DUP1 ISZERO PUSH2 0xA8F JUMPI RETURNDATASIZE PUSH1 0x0 DUP1 RETURNDATACOPY RETURNDATASIZE PUSH1 0x0 REVERT JUMPDEST POP POP POP POP PUSH1 0x40 MLOAD RETURNDATASIZE PUSH1 0x1F NOT PUSH1 0x1F DUP3 ADD AND DUP3 ADD DUP1 PUSH1 0x40 MSTORE POP DUP2 ADD SWAP1 PUSH2 0xAB3 SWAP2 SWAP1 PUSH2 0x1159 JUMP JUMPDEST SWAP1 POP DUP1 PUSH2 0xAD3 JUMPI PUSH1 0x40 MLOAD PUSH4 0x12171D83 PUSH1 0xE3 SHL DUP2 MSTORE PUSH1 0x4 ADD PUSH1 0x40 MLOAD DUP1 SWAP2 SUB SWAP1 REVERT JUMPDEST PUSH1 0x40 DUP1 MLOAD PUSH1 0x1 PUSH1 0x1 PUSH1 0xA0 SHL SUB DUP1 DUP9 AND DUP3 MSTORE DUP7 AND PUSH1 0x20 DUP3 ADD MSTORE SWAP1 DUP2 ADD DUP5 SWAP1 MSTORE PUSH31 0xED5939179DC194223F0EDD1517ECEE2210B22DA7F82C8E4B1795E93B9F06AA SWAP1 PUSH1 0x60 ADD PUSH1 0x40 MLOAD DUP1 SWAP2 SUB SWAP1 LOG1 POP PUSH2 0xB28 PUSH1 0x1 PUSH1 0x2 SSTORE JUMP JUMPDEST POP POP POP POP JUMP JUMPDEST PUSH2 0x922 DUP2 CALLER PUSH2 0xD4D JUMP JUMPDEST PUSH1 0x1 SLOAD PUSH1 0xFF AND ISZERO PUSH2 0xB7E JUMPI PUSH1 0x40 MLOAD PUSH3 0x461BCD PUSH1 0xE5 SHL DUP2 MSTORE PUSH1 0x20 PUSH1 0x4 DUP3 ADD MSTORE PUSH1 0x10 PUSH1 0x24 DUP3 ADD MSTORE PUSH16 0x14185D5CD8589B194E881C185D5CD959 PUSH1 0x82 SHL PUSH1 0x44 DUP3 ADD MSTORE PUSH1 0x64 ADD PUSH2 0x6AB JUMP JUMPDEST JUMP JUMPDEST PUSH1 0x2 DUP1 SLOAD SUB PUSH2 0xBD1 JUMPI PUSH1 0x40 MLOAD PUSH3 0x461BCD PUSH1 0xE5 SHL DUP2 MSTORE PUSH1 0x20 PUSH1 0x4 DUP3 ADD MSTORE PUSH1 0x1F PUSH1 0x24 DUP3 ADD MSTORE PUSH32 0x5265656E7472616E637947756172643A207265656E7472616E742063616C6C00 PUSH1 0x44 DUP3 ADD MSTORE PUSH1 0x64 ADD PUSH2 0x6AB JUMP JUMPDEST PUSH1 0x2 DUP1 SSTORE JUMP JUMPDEST PUSH2 0xBE1 DUP3 DUP3 PUSH2 0x75A JUMP JUMPDEST PUSH2 0x50B JUMPI PUSH1 0x0 DUP3 DUP2 MSTORE PUSH1 0x20 DUP2 DUP2 MSTORE PUSH1 0x40 DUP1 DUP4 KECCAK256 PUSH1 0x1 PUSH1 0x1 PUSH1 0xA0 SHL SUB DUP6 AND DUP5 MSTORE SWAP1 SWAP2 MSTORE SWAP1 KECCAK256 DUP1 SLOAD PUSH1 0xFF NOT AND PUSH1 0x1 OR SWAP1 SSTORE PUSH2 0xC17 CALLER SWAP1 JUMP JUMPDEST PUSH1 0x1 PUSH1 0x1 PUSH1 0xA0 SHL SUB AND DUP2 PUSH1 0x1 PUSH1 0x1 PUSH1 0xA0 SHL SUB AND DUP4 PUSH32 0x2F8788117E7EFF1D82E926EC794901D17C78024A50270940304540A733656F0D PUSH1 0x40 MLOAD PUSH1 0x40 MLOAD DUP1 SWAP2 SUB SWAP1 LOG4 POP POP JUMP JUMPDEST PUSH2 0xC65 DUP3 DUP3 PUSH2 0x75A JUMP JUMPDEST ISZERO PUSH2 0x50B JUMPI PUSH1 0x0 DUP3 DUP2 MSTORE PUSH1 0x20 DUP2 DUP2 MSTORE PUSH1 0x40 DUP1 DUP4 KECCAK256 PUSH1 0x1 PUSH1 0x1 PUSH1 0xA0 SHL SUB DUP6 AND DUP1 DUP6 MSTORE SWAP3 MSTORE DUP1 DUP4 KECCAK256 DUP1 SLOAD PUSH1 0xFF NOT AND SWAP1 SSTORE MLOAD CALLER SWAP3 DUP6 SWAP2 PUSH32 0xF6391F5C32D9C69D2A47EA670B442974B53935D1EDC7FD64EB21E047A839171B SWAP2 SWAP1 LOG4 POP POP JUMP JUMPDEST PUSH2 0xCC8 PUSH2 0xB38 JUMP JUMPDEST PUSH1 0x1 DUP1 SLOAD PUSH1 0xFF NOT AND DUP2 OR SWAP1 SSTORE PUSH32 0x62E78CEA01BEE320CD4E420270B5EA74000D11B0C9F74754EBDBFC544B05A258 CALLER JUMPDEST PUSH1 0x40 MLOAD PUSH1 0x1 PUSH1 0x1 PUSH1 0xA0 SHL SUB SWAP1 SWAP2 AND DUP2 MSTORE PUSH1 0x20 ADD PUSH1 0x40 MLOAD DUP1 SWAP2 SUB SWAP1 LOG1 JUMP JUMPDEST PUSH2 0xD1C PUSH2 0xDA6 JUMP JUMPDEST PUSH1 0x1 DUP1 SLOAD PUSH1 0xFF NOT AND SWAP1 SSTORE PUSH32 0x5DB9EE0A495BF2E6FF9C91A7834C1BA4FDD244A5E8AA4E537BD38AEAE4B073AA CALLER PUSH2 0xCF7 JUMP JUMPDEST PUSH2 0xD57 DUP3 DUP3 PUSH2 0x75A JUMP JUMPDEST PUSH2 0x50B JUMPI PUSH2 0xD64 DUP2 PUSH2 0xDEF JUMP JUMPDEST PUSH2 0xD6F DUP4 PUSH1 0x20 PUSH2 0xE01 JUMP JUMPDEST PUSH1 0x40 MLOAD PUSH1 0x20 ADD PUSH2 0xD80 SWAP3 SWAP2 SWAP1 PUSH2 0x119F JUMP JUMPDEST PUSH1 0x40 DUP1 MLOAD PUSH1 0x1F NOT DUP2 DUP5 SUB ADD DUP2 MSTORE SWAP1 DUP3 SWAP1 MSTORE PUSH3 0x461BCD PUSH1 0xE5 SHL DUP3 MSTORE PUSH2 0x6AB SWAP2 PUSH1 0x4 ADD PUSH2 0x1214 JUMP JUMPDEST PUSH1 0x1 SLOAD PUSH1 0xFF AND PUSH2 0xB7E JUMPI PUSH1 0x40 MLOAD PUSH3 0x461BCD PUSH1 0xE5 SHL DUP2 MSTORE PUSH1 0x20 PUSH1 0x4 DUP3 ADD MSTORE PUSH1 0x14 PUSH1 0x24 DUP3 ADD MSTORE PUSH20 0x14185D5CD8589B194E881B9BDD081C185D5CD959 PUSH1 0x62 SHL PUSH1 0x44 DUP3 ADD MSTORE PUSH1 0x64 ADD PUSH2 0x6AB JUMP JUMPDEST PUSH1 0x60 PUSH2 0x39D PUSH1 0x1 PUSH1 0x1 PUSH1 0xA0 SHL SUB DUP4 AND PUSH1 0x14 JUMPDEST PUSH1 0x60 PUSH1 0x0 PUSH2 0xE10 DUP4 PUSH1 0x2 PUSH2 0x10F4 JUMP JUMPDEST PUSH2 0xE1B SWAP1 PUSH1 0x2 PUSH2 0x10E1 JUMP JUMPDEST PUSH8 0xFFFFFFFFFFFFFFFF DUP2 GT ISZERO PUSH2 0xE33 JUMPI PUSH2 0xE33 PUSH2 0x1247 JUMP JUMPDEST PUSH1 0x40 MLOAD SWAP1 DUP1 DUP3 MSTORE DUP1 PUSH1 0x1F ADD PUSH1 0x1F NOT AND PUSH1 0x20 ADD DUP3 ADD PUSH1 0x40 MSTORE DUP1 ISZERO PUSH2 0xE5D JUMPI PUSH1 0x20 DUP3 ADD DUP2 DUP1 CALLDATASIZE DUP4 CALLDATACOPY ADD SWAP1 POP JUMPDEST POP SWAP1 POP PUSH1 0x3 PUSH1 0xFC SHL DUP2 PUSH1 0x0 DUP2 MLOAD DUP2 LT PUSH2 0xE78 JUMPI PUSH2 0xE78 PUSH2 0x125D JUMP JUMPDEST PUSH1 0x20 ADD ADD SWAP1 PUSH1 0x1 PUSH1 0x1 PUSH1 0xF8 SHL SUB NOT AND SWAP1 DUP2 PUSH1 0x0 BYTE SWAP1 MSTORE8 POP PUSH1 0xF PUSH1 0xFB SHL DUP2 PUSH1 0x1 DUP2 MLOAD DUP2 LT PUSH2 0xEA7 JUMPI PUSH2 0xEA7 PUSH2 0x125D JUMP JUMPDEST PUSH1 0x20 ADD ADD SWAP1 PUSH1 0x1 PUSH1 0x1 PUSH1 0xF8 SHL SUB NOT AND SWAP1 DUP2 PUSH1 0x0 BYTE SWAP1 MSTORE8 POP PUSH1 0x0 PUSH2 0xECB DUP5 PUSH1 0x2 PUSH2 0x10F4 JUMP JUMPDEST PUSH2 0xED6 SWAP1 PUSH1 0x1 PUSH2 0x10E1 JUMP JUMPDEST SWAP1 POP JUMPDEST PUSH1 0x1 DUP2 GT ISZERO PUSH2 0xF4E JUMPI PUSH16 0x181899199A1A9B1B9C1CB0B131B232B3 PUSH1 0x81 SHL DUP6 PUSH1 0xF AND PUSH1 0x10 DUP2 LT PUSH2 0xF0A JUMPI PUSH2 0xF0A PUSH2 0x125D JUMP JUMPDEST BYTE PUSH1 0xF8 SHL DUP3 DUP3 DUP2 MLOAD DUP2 LT PUSH2 0xF20 JUMPI PUSH2 0xF20 PUSH2 0x125D JUMP JUMPDEST PUSH1 0x20 ADD ADD SWAP1 PUSH1 0x1 PUSH1 0x1 PUSH1 0xF8 SHL SUB NOT AND SWAP1 DUP2 PUSH1 0x0 BYTE SWAP1 MSTORE8 POP PUSH1 0x4 SWAP5 SWAP1 SWAP5 SHR SWAP4 PUSH2 0xF47 DUP2 PUSH2 0x1273 JUMP JUMPDEST SWAP1 POP PUSH2 0xED9 JUMP JUMPDEST POP DUP4 ISZERO PUSH2 0x753 JUMPI PUSH1 0x40 MLOAD PUSH3 0x461BCD PUSH1 0xE5 SHL DUP2 MSTORE PUSH1 0x20 PUSH1 0x4 DUP3 ADD DUP2 SWAP1 MSTORE PUSH1 0x24 DUP3 ADD MSTORE PUSH32 0x537472696E67733A20686578206C656E67746820696E73756666696369656E74 PUSH1 0x44 DUP3 ADD MSTORE PUSH1 0x64 ADD PUSH2 0x6AB JUMP JUMPDEST PUSH1 0x0 PUSH1 0x20 DUP3 DUP5 SUB SLT ISZERO PUSH2 0xFAF JUMPI PUSH1 0x0 DUP1 REVERT JUMPDEST DUP2 CALLDATALOAD PUSH1 0x1 PUSH1 0x1 PUSH1 0xE0 SHL SUB NOT DUP2 AND DUP2 EQ PUSH2 0x753 JUMPI PUSH1 0x0 DUP1 REVERT JUMPDEST PUSH1 0x0 DUP1 PUSH1 0x40 DUP4 DUP6 SUB SLT ISZERO PUSH2 0xFDA JUMPI PUSH1 0x0 DUP1 REVERT JUMPDEST POP POP DUP1 CALLDATALOAD SWAP3 PUSH1 0x20 SWAP1 SWAP2 ADD CALLDATALOAD SWAP2 POP JUMP JUMPDEST DUP1 CALLDATALOAD PUSH1 0x1 PUSH1 0x1 PUSH1 0xA0 SHL SUB DUP2 AND DUP2 EQ PUSH2 0x1000 JUMPI PUSH1 0x0 DUP1 REVERT JUMPDEST SWAP2 SWAP1 POP JUMP JUMPDEST PUSH1 0x0 PUSH1 0x20 DUP3 DUP5 SUB SLT ISZERO PUSH2 0x1017 JUMPI PUSH1 0x0 DUP1 REVERT JUMPDEST PUSH2 0x753 DUP3 PUSH2 0xFE9 JUMP JUMPDEST PUSH1 0x0 PUSH1 0x20 DUP3 DUP5 SUB SLT ISZERO PUSH2 0x1032 JUMPI PUSH1 0x0 DUP1 REVERT JUMPDEST POP CALLDATALOAD SWAP2 SWAP1 POP JUMP JUMPDEST PUSH1 0x0 DUP1 PUSH1 0x40 DUP4 DUP6 SUB SLT ISZERO PUSH2 0x104C JUMPI PUSH1 0x0 DUP1 REVERT JUMPDEST PUSH2 0x1055 DUP4 PUSH2 0xFE9 JUMP JUMPDEST SWAP5 PUSH1 0x20 SWAP4 SWAP1 SWAP4 ADD CALLDATALOAD SWAP4 POP POP POP JUMP JUMPDEST PUSH1 0x0 DUP1 PUSH1 0x40 DUP4 DUP6 SUB SLT ISZERO PUSH2 0x1076 JUMPI PUSH1 0x0 DUP1 REVERT JUMPDEST DUP3 CALLDATALOAD SWAP2 POP PUSH2 0x1086 PUSH1 0x20 DUP5 ADD PUSH2 0xFE9 JUMP JUMPDEST SWAP1 POP SWAP3 POP SWAP3 SWAP1 POP JUMP JUMPDEST PUSH1 0x0 DUP1 PUSH1 0x0 PUSH1 0x60 DUP5 DUP7 SUB SLT ISZERO PUSH2 0x10A4 JUMPI PUSH1 0x0 DUP1 REVERT JUMPDEST PUSH2 0x10AD DUP5 PUSH2 0xFE9 JUMP JUMPDEST SWAP3 POP PUSH2 0x10BB PUSH1 0x20 DUP6 ADD PUSH2 0xFE9 JUMP JUMPDEST SWAP2 POP PUSH1 0x40 DUP5 ADD CALLDATALOAD SWAP1 POP SWAP3 POP SWAP3 POP SWAP3 JUMP JUMPDEST PUSH4 0x4E487B71 PUSH1 0xE0 SHL PUSH1 0x0 MSTORE PUSH1 0x11 PUSH1 0x4 MSTORE PUSH1 0x24 PUSH1 0x0 REVERT JUMPDEST DUP1 DUP3 ADD DUP1 DUP3 GT ISZERO PUSH2 0x39D JUMPI PUSH2 0x39D PUSH2 0x10CB JUMP JUMPDEST DUP1 DUP3 MUL DUP2 ISZERO DUP3 DUP3 DIV DUP5 EQ OR PUSH2 0x39D JUMPI PUSH2 0x39D PUSH2 0x10CB JUMP JUMPDEST PUSH1 0x0 DUP3 PUSH2 0x1128 JUMPI PUSH4 0x4E487B71 PUSH1 0xE0 SHL PUSH1 0x0 MSTORE PUSH1 0x12 PUSH1 0x4 MSTORE PUSH1 0x24 PUSH1 0x0 REVERT JUMPDEST POP DIV SWAP1 JUMP JUMPDEST PUSH1 0x0 PUSH1 0x20 DUP3 DUP5 SUB SLT ISZERO PUSH2 0x113F JUMPI PUSH1 0x0 DUP1 REVERT JUMPDEST POP MLOAD SWAP2 SWAP1 POP JUMP JUMPDEST DUP2 DUP2 SUB DUP2 DUP2 GT ISZERO PUSH2 0x39D JUMPI PUSH2 0x39D PUSH2 0x10CB JUMP JUMPDEST PUSH1 0x0 PUSH1 0x20 DUP3 DUP5 SUB SLT ISZERO PUSH2 0x116B JUMPI PUSH1 0x0 DUP1 REVERT JUMPDEST DUP2 MLOAD DUP1 ISZERO ISZERO DUP2 EQ PUSH2 0x753 JUMPI PUSH1 0x0 DUP1 REVERT JUMPDEST PUSH1 0x0 JUMPDEST DUP4 DUP2 LT ISZERO PUSH2 0x1196 JUMPI DUP2 DUP2 ADD MLOAD DUP4 DUP3 ADD MSTORE PUSH1 0x20 ADD PUSH2 0x117E JUMP JUMPDEST POP POP PUSH1 0x0 SWAP2 ADD MSTORE JUMP JUMPDEST PUSH32 0x416363657373436F6E74726F6C3A206163636F756E7420000000000000000000 DUP2 MSTORE PUSH1 0x0 DUP4 MLOAD PUSH2 0x11D7 DUP2 PUSH1 0x17 DUP6 ADD PUSH1 0x20 DUP9 ADD PUSH2 0x117B JUMP JUMPDEST PUSH17 0x1034B99036B4B9B9B4B733903937B6329 PUSH1 0x7D SHL PUSH1 0x17 SWAP2 DUP5 ADD SWAP2 DUP3 ADD MSTORE DUP4 MLOAD PUSH2 0x1208 DUP2 PUSH1 0x28 DUP5 ADD PUSH1 0x20 DUP9 ADD PUSH2 0x117B JUMP JUMPDEST ADD PUSH1 0x28 ADD SWAP5 SWAP4 POP POP POP POP JUMP JUMPDEST PUSH1 0x20 DUP2 MSTORE PUSH1 0x0 DUP3 MLOAD DUP1 PUSH1 0x20 DUP5 ADD MSTORE PUSH2 0x1233 DUP2 PUSH1 0x40 DUP6 ADD PUSH1 0x20 DUP8 ADD PUSH2 0x117B JUMP JUMPDEST PUSH1 0x1F ADD PUSH1 0x1F NOT AND SWAP2 SWAP1 SWAP2 ADD PUSH1 0x40 ADD SWAP3 SWAP2 POP POP JUMP JUMPDEST PUSH4 0x4E487B71 PUSH1 0xE0 SHL PUSH1 0x0 MSTORE PUSH1 0x41 PUSH1 0x4 MSTORE PUSH1 0x24 PUSH1 0x0 REVERT JUMPDEST PUSH4 0x4E487B71 PUSH1 0xE0 SHL PUSH1 0x0 MSTORE PUSH1 0x32 PUSH1 0x4 MSTORE PUSH1 0x24 PUSH1 0x0 REVERT JUMPDEST PUSH1 0x0 DUP2 PUSH2 0x1282 JUMPI PUSH2 0x1282 PUSH2 0x10CB JUMP JUMPDEST POP PUSH1 0x0 NOT ADD SWAP1 JUMP INVALID LOG4 SWAP9 SMOD KECCAK256 0x5C 0xE4 0xD3 SSTORE MULMOD 0x2E CREATE2 0xA8 LOG1 DUP16 JUMP 0xE8 SWAP2 EXTCODECOPY DELEGATECALL LOG2 ADD 0xFB 0xE2 DUP8 DUP3 JUMPDEST MULMOD JUMP SWAP4 0xC2 OR PUSH22 0xA2646970667358221220835491550899980E51074169 DUP1 0xA8 0xF 0xAC 0xAB 0xCE PUSH32 0x2EA2B7530C79C74B2341F5A8C364736F6C634300081300330000000000000000 "},"methodIdentifiers":{"ADMIN_ROLE()":"75b238fc","DEFAULT_ADMIN_ROLE()":"a217fddf","FIBO_TOKEN()":"80483746","ORIO_TOKEN()":"1975c378","baseFee()":"6ef25c3a","calculateFee(address,uint256)":"8b28ab1e","collectedFees(address)":"1cead9a7","discountTokens(address)":"af2926c5","discountedFee()":"92d055ee","getRoleAdmin(bytes32)":"248a9ca3","grantRole(bytes32,address)":"2f2ff15d","hasRole(bytes32,address)":"91d14854","isEligibleForDiscount(address)":"961cb361","paused()":"5c975abb","processFee(address,uint256)":"28634b5d","renounceRole(bytes32,address)":"36568abe","revokeRole(bytes32,address)":"d547741f","setFees(uint256,uint256)":"0b78f9c0","supportsInterface(bytes4)":"01ffc9a7","togglePause()":"c4ae3168","updateDiscountTokenThreshold(address,uint256)":"363c8a24","withdrawFees(address,address,uint256)":"e55dc4e6"}}}}}