{
  "_format": "hh-sol-artifact-1",
  "contractName": "FeeManager",
  "sourceName": "contracts/FeeManager.sol",
  "abi": [
    {
      "inputs": [
        {
          "internalType": "address",
          "name": "fiboToken",
          "type": "address"
        },
        {
          "internalType": "address",
          "name": "orioToken",
          "type": "address"
        }
      ],
      "stateMutability": "nonpayable",
      "type": "constructor"
    },
    {
      "inputs": [],
      "name": "InsufficientFeeBalance",
      "type": "error"
    },
    {
      "inputs": [],
      "name": "InvalidAmount",
      "type": "error"
    },
    {
      "inputs": [],
      "name": "InvalidDiscountToken",
      "type": "error"
    },
    {
      "inputs": [],
      "name": "InvalidFeeParameters",
      "type": "error"
    },
    {
      "inputs": [],
      "name": "TransferFailed",
      "type": "error"
    },
    {
      "inputs": [],
      "name": "ZeroAddress",
      "type": "error"
    },
    {
      "anonymous": false,
      "inputs": [
        {
          "indexed": false,
          "internalType": "address",
          "name": "token",
          "type": "address"
        },
        {
          "indexed": false,
          "internalType": "uint256",
          "name": "minimumBalance",
          "type": "uint256"
        }
      ],
      "name": "DiscountTokenUpdated",
      "type": "event"
    },
    {
      "anonymous": false,
      "inputs": [
        {
          "indexed": false,
          "internalType": "address",
          "name": "token",
          "type": "address"
        },
        {
          "indexed": false,
          "internalType": "uint256",
          "name": "amount",
          "type": "uint256"
        }
      ],
      "name": "FeeCollected",
      "type": "event"
    },
    {
      "anonymous": false,
      "inputs": [
        {
          "indexed": false,
          "internalType": "address",
          "name": "token",
          "type": "address"
        },
        {
          "indexed": false,
          "internalType": "address",
          "name": "recipient",
          "type": "address"
        },
        {
          "indexed": false,
          "internalType": "uint256",
          "name": "amount",
          "type": "uint256"
        }
      ],
      "name": "FeeWithdrawn",
      "type": "event"
    },
    {
      "anonymous": false,
      "inputs": [
        {
          "indexed": false,
          "internalType": "uint256",
          "name": "newBaseFee",
          "type": "uint256"
        },
        {
          "indexed": false,
          "internalType": "uint256",
          "name": "newDiscountedFee",
          "type": "uint256"
        }
      ],
      "name": "FeesUpdated",
      "type": "event"
    },
    {
      "anonymous": false,
      "inputs": [
        {
          "indexed": false,
          "internalType": "address",
          "name": "account",
          "type": "address"
        }
      ],
      "name": "Paused",
      "type": "event"
    },
    {
      "anonymous": false,
      "inputs": [
        {
          "indexed": true,
          "internalType": "bytes32",
          "name": "role",
          "type": "bytes32"
        },
        {
          "indexed": true,
          "internalType": "bytes32",
          "name": "previousAdminRole",
          "type": "bytes32"
        },
        {
          "indexed": true,
          "internalType": "bytes32",
          "name": "newAdminRole",
          "type": "bytes32"
        }
      ],
      "name": "RoleAdminChanged",
      "type": "event"
    },
    {
      "anonymous": false,
      "inputs": [
        {
          "indexed": true,
          "internalType": "bytes32",
          "name": "role",
          "type": "bytes32"
        },
        {
          "indexed": true,
          "internalType": "address",
          "name": "account",
          "type": "address"
        },
        {
          "indexed": true,
          "internalType": "address",
          "name": "sender",
          "type": "address"
        }
      ],
      "name": "RoleGranted",
      "type": "event"
    },
    {
      "anonymous": false,
      "inputs": [
        {
          "indexed": true,
          "internalType": "bytes32",
          "name": "role",
          "type": "bytes32"
        },
        {
          "indexed": true,
          "internalType": "address",
          "name": "account",
          "type": "address"
        },
        {
          "indexed": true,
          "internalType": "address",
          "name": "sender",
          "type": "address"
        }
      ],
      "name": "RoleRevoked",
      "type": "event"
    },
    {
      "anonymous": false,
      "inputs": [
        {
          "indexed": false,
          "internalType": "address",
          "name": "account",
          "type": "address"
        }
      ],
      "name": "Unpaused",
      "type": "event"
    },
    {
      "inputs": [],
      "name": "ADMIN_ROLE",
      "outputs": [
        {
          "internalType": "bytes32",
          "name": "",
          "type": "bytes32"
        }
      ],
      "stateMutability": "view",
      "type": "function"
    },
    {
      "inputs": [],
      "name": "DEFAULT_ADMIN_ROLE",
      "outputs": [
        {
          "internalType": "bytes32",
          "name": "",
          "type": "bytes32"
        }
      ],
      "stateMutability": "view",
      "type": "function"
    },
    {
      "inputs": [],
      "name": "FIBO_TOKEN",
      "outputs": [
        {
          "internalType": "address",
          "name": "",
          "type": "address"
        }
      ],
      "stateMutability": "view",
      "type": "function"
    },
    {
      "inputs": [],
      "name": "ORIO_TOKEN",
      "outputs": [
        {
          "internalType": "address",
          "name": "",
          "type": "address"
        }
      ],
      "stateMutability": "view",
      "type": "function"
    },
    {
      "inputs": [],
      "name": "baseFee",
      "outputs": [
        {
          "internalType": "uint256",
          "name": "",
          "type": "uint256"
        }
      ],
      "stateMutability": "view",
      "type": "function"
    },
    {
      "inputs": [
        {
          "internalType": "address",
          "name": "user",
          "type": "address"
        },
        {
          "internalType": "uint256",
          "name": "amount",
          "type": "uint256"
        }
      ],
      "name": "calculateFee",
      "outputs": [
        {
          "internalType": "uint256",
          "name": "",
          "type": "uint256"
        }
      ],
      "stateMutability": "view",
      "type": "function"
    },
    {
      "inputs": [
        {
          "internalType": "address",
          "name": "",
          "type": "address"
        }
      ],
      "name": "collectedFees",
      "outputs": [
        {
          "internalType": "uint256",
          "name": "",
          "type": "uint256"
        }
      ],
      "stateMutability": "view",
      "type": "function"
    },
    {
      "inputs": [
        {
          "internalType": "address",
          "name": "",
          "type": "address"
        }
      ],
      "name": "discountTokens",
      "outputs": [
        {
          "internalType": "bool",
          "name": "isActive",
          "type": "bool"
        },
        {
          "internalType": "uint256",
          "name": "minimumBalance",
          "type": "uint256"
        }
      ],
      "stateMutability": "view",
      "type": "function"
    },
    {
      "inputs": [],
      "name": "discountedFee",
      "outputs": [
        {
          "internalType": "uint256",
          "name": "",
          "type": "uint256"
        }
      ],
      "stateMutability": "view",
      "type": "function"
    },
    {
      "inputs": [
        {
          "internalType": "bytes32",
          "name": "role",
          "type": "bytes32"
        }
      ],
      "name": "getRoleAdmin",
      "outputs": [
        {
          "internalType": "bytes32",
          "name": "",
          "type": "bytes32"
        }
      ],
      "stateMutability": "view",
      "type": "function"
    },
    {
      "inputs": [
        {
          "internalType": "bytes32",
          "name": "role",
          "type": "bytes32"
        },
        {
          "internalType": "address",
          "name": "account",
          "type": "address"
        }
      ],
      "name": "grantRole",
      "outputs": [],
      "stateMutability": "nonpayable",
      "type": "function"
    },
    {
      "inputs": [
        {
          "internalType": "bytes32",
          "name": "role",
          "type": "bytes32"
        },
        {
          "internalType": "address",
          "name": "account",
          "type": "address"
        }
      ],
      "name": "hasRole",
      "outputs": [
        {
          "internalType": "bool",
          "name": "",
          "type": "bool"
        }
      ],
      "stateMutability": "view",
      "type": "function"
    },
    {
      "inputs": [
        {
          "internalType": "address",
          "name": "user",
          "type": "address"
        }
      ],
      "name": "isEligibleForDiscount",
      "outputs": [
        {
          "internalType": "bool",
          "name": "",
          "type": "bool"
        }
      ],
      "stateMutability": "view",
      "type": "function"
    },
    {
      "inputs": [],
      "name": "paused",
      "outputs": [
        {
          "internalType": "bool",
          "name": "",
          "type": "bool"
        }
      ],
      "stateMutability": "view",
      "type": "function"
    },
    {
      "inputs": [
        {
          "internalType": "address",
          "name": "token",
          "type": "address"
        },
        {
          "internalType": "uint256",
          "name": "amount",
          "type": "uint256"
        }
      ],
      "name": "processFee",
      "outputs": [],
      "stateMutability": "nonpayable",
      "type": "function"
    },
    {
      "inputs": [
        {
          "internalType": "bytes32",
          "name": "role",
          "type": "bytes32"
        },
        {
          "internalType": "address",
          "name": "account",
          "type": "address"
        }
      ],
      "name": "renounceRole",
      "outputs": [],
      "stateMutability": "nonpayable",
      "type": "function"
    },
    {
      "inputs": [
        {
          "internalType": "bytes32",
          "name": "role",
          "type": "bytes32"
        },
        {
          "internalType": "address",
          "name": "account",
          "type": "address"
        }
      ],
      "name": "revokeRole",
      "outputs": [],
      "stateMutability": "nonpayable",
      "type": "function"
    },
    {
      "inputs": [
        {
          "internalType": "uint256",
          "name": "newBaseFee",
          "type": "uint256"
        },
        {
          "internalType": "uint256",
          "name": "newDiscountedFee",
          "type": "uint256"
        }
      ],
      "name": "setFees",
      "outputs": [],
      "stateMutability": "nonpayable",
      "type": "function"
    },
    {
      "inputs": [
        {
          "internalType": "bytes4",
          "name": "interfaceId",
          "type": "bytes4"
        }
      ],
      "name": "supportsInterface",
      "outputs": [
        {
          "internalType": "bool",
          "name": "",
          "type": "bool"
        }
      ],
      "stateMutability": "view",
      "type": "function"
    },
    {
      "inputs": [],
      "name": "togglePause",
      "outputs": [],
      "stateMutability": "nonpayable",
      "type": "function"
    },
    {
      "inputs": [
        {
          "internalType": "address",
          "name": "token",
          "type": "address"
        },
        {
          "internalType": "uint256",
          "name": "newThreshold",
          "type": "uint256"
        }
      ],
      "name": "updateDiscountTokenThreshold",
      "outputs": [],
      "stateMutability": "nonpayable",
      "type": "function"
    },
    {
      "inputs": [
        {
          "internalType": "address",
          "name": "token",
          "type": "address"
        },
        {
          "internalType": "address",
          "name": "recipient",
          "type": "address"
        },
        {
          "internalType": "uint256",
          "name": "amount",
          "type": "uint256"
        }
      ],
      "name": "withdrawFees",
      "outputs": [],
      "stateMutability": "nonpayable",
      "type": "function"
    }
  ],
  "bytecode": "0x60c0604052606460035560326004553480156200001b57600080fd5b5060405162001585380380620015858339810160408190526200003e916200022b565b6001805460ff191681556002556001600160a01b03821615806200006957506001600160a01b038116155b15620000885760405163d92e233d60e01b815260040160405180910390fd5b6001600160a01b03808316608052811660a052620000a86000336200016d565b620000d47fa49807205ce4d355092ef5a8a18f56e8913cf4a201fbe287825b095693c21775336200016d565b5050604080518082018252600180825269152d02c7e14af680000060208084019182526080516001600160a01b03908116600090815260058084528782209651875490151560ff19918216178855945196860196909655865180880188528581526a084595161401484a00000081850190815260a051909316825295909252949020925183549015159116178255915191015562000263565b6000828152602081815260408083206001600160a01b038516845290915290205460ff166200020a576000828152602081815260408083206001600160a01b03851684529091529020805460ff19166001179055620001c93390565b6001600160a01b0316816001600160a01b0316837f2f8788117e7eff1d82e926ec794901d17c78024a50270940304540a733656f0d60405160405180910390a45b5050565b80516001600160a01b03811681146200022657600080fd5b919050565b600080604083850312156200023f57600080fd5b6200024a836200020e565b91506200025a602084016200020e565b90509250929050565b60805160a0516112e0620002a56000396000818161018901528181610598015261085c01526000818161028e0152818161055b01526107b601526112e06000f3fe608060405234801561001057600080fd5b50600436106101425760003560e01c806375b238fc116100b8578063961cb3611161007c578063961cb361146102df578063a217fddf146102f2578063af2926c5146102fa578063c4ae31681461033e578063d547741f14610346578063e55dc4e61461035957600080fd5b806375b238fc1461027457806380483746146102895780638b28ab1e146102b057806391d14854146102c357806392d055ee146102d657600080fd5b806328634b5d1161010a57806328634b5d146102145780632f2ff15d14610227578063363c8a241461023a57806336568abe1461024d5780635c975abb146102605780636ef25c3a1461026b57600080fd5b806301ffc9a7146101475780630b78f9c01461016f5780631975c378146101845780631cead9a7146101c3578063248a9ca3146101f1575b600080fd5b61015a610155366004610f9d565b61036c565b60405190151581526020015b60405180910390f35b61018261017d366004610fc7565b6103a3565b005b6101ab7f000000000000000000000000000000000000000000000000000000000000000081565b6040516001600160a01b039091168152602001610166565b6101e36101d1366004611005565b60066020526000908152604090205481565b604051908152602001610166565b6101e36101ff366004611020565b60009081526020819052604090206001015490565b610182610222366004611039565b61043a565b610182610235366004611063565b61050f565b610182610248366004611039565b610539565b61018261025b366004611063565b61063f565b60015460ff1661015a565b6101e360035481565b6101e360008051602061128b83398151915281565b6101ab7f000000000000000000000000000000000000000000000000000000000000000081565b6101e36102be366004611039565b6106be565b61015a6102d1366004611063565b61075a565b6101e360045481565b61015a6102ed366004611005565b610783565b6101e3600081565b610327610308366004611005565b6005602052600090815260409020805460019091015460ff9091169082565b604080519215158352602083019190915201610166565b6101826108f8565b610182610354366004611063565b61092d565b61018261036736600461108f565b610952565b60006001600160e01b03198216637965db0b60e01b148061039d57506301ffc9a760e01b6001600160e01b03198316145b92915050565b60008051602061128b8339815191526103bb81610b2e565b6103c3610b38565b81831115806103d357506103e883115b156103f157604051634db7e85160e01b815260040160405180910390fd5b6003839055600482905560408051848152602081018490527f5c6323bf1c2d7aaea2c091a4751c1c87af7f2864650c336507a77d0557af37a191015b60405180910390a1505050565b610442610b80565b61044a610b38565b8060000361046b5760405163162908e360e11b815260040160405180910390fd5b6001600160a01b0382166104925760405163d92e233d60e01b815260040160405180910390fd5b6001600160a01b038216600090815260066020526040812080548392906104ba9084906110e1565b9091555050604080516001600160a01b0384168152602081018390527f06c5efeff5c320943d265dc4e5f1af95ad523555ce0c1957e367dda5514572df910160405180910390a161050b6001600255565b5050565b60008281526020819052604090206001015461052a81610b2e565b6105348383610bd7565b505050565b60008051602061128b83398151915261055181610b2e565b610559610b38565b7f00000000000000000000000000000000000000000000000000000000000000006001600160a01b0316836001600160a01b0316141580156105cd57507f00000000000000000000000000000000000000000000000000000000000000006001600160a01b0316836001600160a01b031614155b156105eb5760405163559f47bf60e01b815260040160405180910390fd5b6001600160a01b038316600081815260056020908152604091829020600101859055815192835282018490527fe401b33b1c19cbfd847e10c56980ecb20a2eb62088527dbfd3ff3a3698f38052910161042d565b6001600160a01b03811633146106b45760405162461bcd60e51b815260206004820152602f60248201527f416363657373436f6e74726f6c3a2063616e206f6e6c792072656e6f756e636560448201526e103937b632b9903337b91039b2b63360891b60648201526084015b60405180910390fd5b61050b8282610c5b565b6000816000036106e15760405163162908e360e11b815260040160405180910390fd5b6001600160a01b0383166107085760405163d92e233d60e01b815260040160405180910390fd5b61071183610783565b15610738576127106004548361072791906110f4565b610731919061110b565b905061039d565b6127106003548361074991906110f4565b610753919061110b565b9392505050565b6000918252602082815260408084206001600160a01b0393909316845291905290205460ff1690565b60006001600160a01b0382166107ac5760405163d92e233d60e01b815260040160405180910390fd5b6001600160a01b037f00000000000000000000000000000000000000000000000000000000000000008116600081815260056020526040908190206001015490516370a0823160e01b81529285166004840152916370a0823190602401602060405180830381865afa158015610826573d6000803e3d6000fd5b505050506040513d601f19601f8201168201806040525081019061084a919061112d565b10158061039d57506001600160a01b037f00000000000000000000000000000000000000000000000000000000000000008116600081815260056020526040908190206001015490516370a0823160e01b81529285166004840152916370a0823190602401602060405180830381865afa1580156108cc573d6000803e3d6000fd5b505050506040513d601f19601f820116820180604052508101906108f0919061112d565b101592915050565b60008051602061128b83398151915261091081610b2e565b60015460ff1661092557610922610cc0565b50565b610922610d14565b60008281526020819052604090206001015461094881610b2e565b6105348383610c5b565b60008051602061128b83398151915261096a81610b2e565b610972610b80565b61097a610b38565b6001600160a01b038416158061099757506001600160a01b038316155b156109b55760405163d92e233d60e01b815260040160405180910390fd5b816000036109d65760405163162908e360e11b815260040160405180910390fd5b6001600160a01b038416600090815260066020526040902054821115610a0f57604051637806a4f560e11b815260040160405180910390fd5b6001600160a01b03841660009081526006602052604081208054849290610a37908490611146565b909155505060405163a9059cbb60e01b81526001600160a01b038481166004830152602482018490526000919086169063a9059cbb906044016020604051808303816000875af1158015610a8f573d6000803e3d6000fd5b505050506040513d601f19601f82011682018060405250810190610ab39190611159565b905080610ad3576040516312171d8360e31b815260040160405180910390fd5b604080516001600160a01b038088168252861660208201529081018490527eed5939179dc194223f0edd1517ecee2210b22da7f82c8e4b1795e93b9f06aa9060600160405180910390a150610b286001600255565b50505050565b6109228133610d4d565b60015460ff1615610b7e5760405162461bcd60e51b815260206004820152601060248201526f14185d5cd8589b194e881c185d5cd95960821b60448201526064016106ab565b565b6002805403610bd15760405162461bcd60e51b815260206004820152601f60248201527f5265656e7472616e637947756172643a207265656e7472616e742063616c6c0060448201526064016106ab565b60028055565b610be1828261075a565b61050b576000828152602081815260408083206001600160a01b03851684529091529020805460ff19166001179055610c173390565b6001600160a01b0316816001600160a01b0316837f2f8788117e7eff1d82e926ec794901d17c78024a50270940304540a733656f0d60405160405180910390a45050565b610c65828261075a565b1561050b576000828152602081815260408083206001600160a01b0385168085529252808320805460ff1916905551339285917ff6391f5c32d9c69d2a47ea670b442974b53935d1edc7fd64eb21e047a839171b9190a45050565b610cc8610b38565b6001805460ff1916811790557f62e78cea01bee320cd4e420270b5ea74000d11b0c9f74754ebdbfc544b05a258335b6040516001600160a01b03909116815260200160405180910390a1565b610d1c610da6565b6001805460ff191690557f5db9ee0a495bf2e6ff9c91a7834c1ba4fdd244a5e8aa4e537bd38aeae4b073aa33610cf7565b610d57828261075a565b61050b57610d6481610def565b610d6f836020610e01565b604051602001610d8092919061119f565b60408051601f198184030181529082905262461bcd60e51b82526106ab91600401611214565b60015460ff16610b7e5760405162461bcd60e51b815260206004820152601460248201527314185d5cd8589b194e881b9bdd081c185d5cd95960621b60448201526064016106ab565b606061039d6001600160a01b03831660145b60606000610e108360026110f4565b610e1b9060026110e1565b67ffffffffffffffff811115610e3357610e33611247565b6040519080825280601f01601f191660200182016040528015610e5d576020820181803683370190505b509050600360fc1b81600081518110610e7857610e7861125d565b60200101906001600160f81b031916908160001a905350600f60fb1b81600181518110610ea757610ea761125d565b60200101906001600160f81b031916908160001a9053506000610ecb8460026110f4565b610ed69060016110e1565b90505b6001811115610f4e576f181899199a1a9b1b9c1cb0b131b232b360811b85600f1660108110610f0a57610f0a61125d565b1a60f81b828281518110610f2057610f2061125d565b60200101906001600160f81b031916908160001a90535060049490941c93610f4781611273565b9050610ed9565b5083156107535760405162461bcd60e51b815260206004820181905260248201527f537472696e67733a20686578206c656e67746820696e73756666696369656e7460448201526064016106ab565b600060208284031215610faf57600080fd5b81356001600160e01b03198116811461075357600080fd5b60008060408385031215610fda57600080fd5b50508035926020909101359150565b80356001600160a01b038116811461100057600080fd5b919050565b60006020828403121561101757600080fd5b61075382610fe9565b60006020828403121561103257600080fd5b5035919050565b6000806040838503121561104c57600080fd5b61105583610fe9565b946020939093013593505050565b6000806040838503121561107657600080fd5b8235915061108660208401610fe9565b90509250929050565b6000806000606084860312156110a457600080fd5b6110ad84610fe9565b92506110bb60208501610fe9565b9150604084013590509250925092565b634e487b7160e01b600052601160045260246000fd5b8082018082111561039d5761039d6110cb565b808202811582820484141761039d5761039d6110cb565b60008261112857634e487b7160e01b600052601260045260246000fd5b500490565b60006020828403121561113f57600080fd5b5051919050565b8181038181111561039d5761039d6110cb565b60006020828403121561116b57600080fd5b8151801515811461075357600080fd5b60005b8381101561119657818101518382015260200161117e565b50506000910152565b7f416363657373436f6e74726f6c3a206163636f756e74200000000000000000008152600083516111d781601785016020880161117b565b7001034b99036b4b9b9b4b733903937b6329607d1b601791840191820152835161120881602884016020880161117b565b01602801949350505050565b602081526000825180602084015261123381604085016020870161117b565b601f01601f19169190910160400192915050565b634e487b7160e01b600052604160045260246000fd5b634e487b7160e01b600052603260045260246000fd5b600081611282576112826110cb565b50600019019056fea49807205ce4d355092ef5a8a18f56e8913cf4a201fbe287825b095693c21775a2646970667358221220835491550899980e5107416980a80facabce7f2ea2b7530c79c74b2341f5a8c364736f6c63430008130033",
  "linkReferences": {},
  "deployedLinkReferences": {}
}