{
  "_format": "hh-sol-artifact-1",
  "contractName": "TokenPool",
  "sourceName": "contracts/TokenPool.sol",
  "abi": [
    {
      "inputs": [
        {
          "internalType": "address",
          "name": "_feeManager",
          "type": "address"
        },
        {
          "internalType": "address",
          "name": "_endpoint",
          "type": "address"
        }
      ],
      "stateMutability": "nonpayable",
      "type": "constructor"
    },
    {
      "inputs": [],
      "name": "InsufficientPoolBalance",
      "type": "error"
    },
    {
      "inputs": [],
      "name": "InvalidAmount",
      "type": "error"
    },
    {
      "inputs": [],
      "name": "InvalidChainId",
      "type": "error"
    },
    {
      "inputs": [],
      "name": "UnsupportedToken",
      "type": "error"
    },
    {
      "inputs": [],
      "name": "UntrustedRemote",
      "type": "error"
    },
    {
      "inputs": [],
      "name": "ZeroAddress",
      "type": "error"
    },
    {
      "anonymous": false,
      "inputs": [
        {
          "indexed": false,
          "internalType": "string",
          "name": "token",
          "type": "string"
        },
        {
          "indexed": false,
          "internalType": "uint256",
          "name": "amount",
          "type": "uint256"
        }
      ],
      "name": "LiquidityAdded",
      "type": "event"
    },
    {
      "anonymous": false,
      "inputs": [
        {
          "indexed": false,
          "internalType": "string",
          "name": "token",
          "type": "string"
        },
        {
          "indexed": false,
          "internalType": "uint256",
          "name": "amount",
          "type": "uint256"
        }
      ],
      "name": "LiquidityRemoved",
      "type": "event"
    },
    {
      "anonymous": false,
      "inputs": [
        {
          "indexed": false,
          "internalType": "uint256",
          "name": "newAmount",
          "type": "uint256"
        }
      ],
      "name": "MaxTransactionAmountUpdated",
      "type": "event"
    },
    {
      "anonymous": false,
      "inputs": [
        {
          "indexed": false,
          "internalType": "uint16",
          "name": "_srcChainId",
          "type": "uint16"
        },
        {
          "indexed": false,
          "internalType": "bytes",
          "name": "_srcAddress",
          "type": "bytes"
        },
        {
          "indexed": false,
          "internalType": "uint64",
          "name": "_nonce",
          "type": "uint64"
        },
        {
          "indexed": false,
          "internalType": "bytes",
          "name": "_payload",
          "type": "bytes"
        },
        {
          "indexed": false,
          "internalType": "bytes",
          "name": "_reason",
          "type": "bytes"
        }
      ],
      "name": "MessageFailed",
      "type": "event"
    },
    {
      "anonymous": false,
      "inputs": [
        {
          "indexed": true,
          "internalType": "address",
          "name": "previousOwner",
          "type": "address"
        },
        {
          "indexed": true,
          "internalType": "address",
          "name": "newOwner",
          "type": "address"
        }
      ],
      "name": "OwnershipTransferred",
      "type": "event"
    },
    {
      "anonymous": false,
      "inputs": [
        {
          "indexed": false,
          "internalType": "address",
          "name": "account",
          "type": "address"
        }
      ],
      "name": "Paused",
      "type": "event"
    },
    {
      "anonymous": false,
      "inputs": [
        {
          "indexed": false,
          "internalType": "uint16",
          "name": "_srcChainId",
          "type": "uint16"
        },
        {
          "indexed": false,
          "internalType": "bytes",
          "name": "_srcAddress",
          "type": "bytes"
        },
        {
          "indexed": false,
          "internalType": "uint64",
          "name": "_nonce",
          "type": "uint64"
        },
        {
          "indexed": false,
          "internalType": "bytes32",
          "name": "_payloadHash",
          "type": "bytes32"
        }
      ],
      "name": "RetryMessageSuccess",
      "type": "event"
    },
    {
      "anonymous": false,
      "inputs": [
        {
          "indexed": true,
          "internalType": "bytes32",
          "name": "role",
          "type": "bytes32"
        },
        {
          "indexed": true,
          "internalType": "bytes32",
          "name": "previousAdminRole",
          "type": "bytes32"
        },
        {
          "indexed": true,
          "internalType": "bytes32",
          "name": "newAdminRole",
          "type": "bytes32"
        }
      ],
      "name": "RoleAdminChanged",
      "type": "event"
    },
    {
      "anonymous": false,
      "inputs": [
        {
          "indexed": true,
          "internalType": "bytes32",
          "name": "role",
          "type": "bytes32"
        },
        {
          "indexed": true,
          "internalType": "address",
          "name": "account",
          "type": "address"
        },
        {
          "indexed": true,
          "internalType": "address",
          "name": "sender",
          "type": "address"
        }
      ],
      "name": "RoleGranted",
      "type": "event"
    },
    {
      "anonymous": false,
      "inputs": [
        {
          "indexed": true,
          "internalType": "bytes32",
          "name": "role",
          "type": "bytes32"
        },
        {
          "indexed": true,
          "internalType": "address",
          "name": "account",
          "type": "address"
        },
        {
          "indexed": true,
          "internalType": "address",
          "name": "sender",
          "type": "address"
        }
      ],
      "name": "RoleRevoked",
      "type": "event"
    },
    {
      "anonymous": false,
      "inputs": [
        {
          "indexed": false,
          "internalType": "uint16",
          "name": "_dstChainId",
          "type": "uint16"
        },
        {
          "indexed": false,
          "internalType": "uint16",
          "name": "_type",
          "type": "uint16"
        },
        {
          "indexed": false,
          "internalType": "uint256",
          "name": "_minDstGas",
          "type": "uint256"
        }
      ],
      "name": "SetMinDstGas",
      "type": "event"
    },
    {
      "anonymous": false,
      "inputs": [
        {
          "indexed": false,
          "internalType": "address",
          "name": "precrime",
          "type": "address"
        }
      ],
      "name": "SetPrecrime",
      "type": "event"
    },
    {
      "anonymous": false,
      "inputs": [
        {
          "indexed": false,
          "internalType": "uint16",
          "name": "_remoteChainId",
          "type": "uint16"
        },
        {
          "indexed": false,
          "internalType": "bytes",
          "name": "_path",
          "type": "bytes"
        }
      ],
      "name": "SetTrustedRemote",
      "type": "event"
    },
    {
      "anonymous": false,
      "inputs": [
        {
          "indexed": false,
          "internalType": "uint16",
          "name": "_remoteChainId",
          "type": "uint16"
        },
        {
          "indexed": false,
          "internalType": "bytes",
          "name": "_remoteAddress",
          "type": "bytes"
        }
      ],
      "name": "SetTrustedRemoteAddress",
      "type": "event"
    },
    {
      "anonymous": false,
      "inputs": [
        {
          "indexed": false,
          "internalType": "string",
          "name": "symbol",
          "type": "string"
        },
        {
          "indexed": false,
          "internalType": "address",
          "name": "tokenAddress",
          "type": "address"
        },
        {
          "indexed": false,
          "internalType": "bool",
          "name": "isSupported",
          "type": "bool"
        }
      ],
      "name": "SupportedTokenUpdated",
      "type": "event"
    },
    {
      "anonymous": false,
      "inputs": [
        {
          "indexed": false,
          "internalType": "string",
          "name": "token",
          "type": "string"
        },
        {
          "indexed": false,
          "internalType": "uint256",
          "name": "amount",
          "type": "uint256"
        },
        {
          "indexed": false,
          "internalType": "address",
          "name": "recipient",
          "type": "address"
        }
      ],
      "name": "SwapCompleted",
      "type": "event"
    },
    {
      "anonymous": false,
      "inputs": [
        {
          "indexed": false,
          "internalType": "string",
          "name": "token",
          "type": "string"
        },
        {
          "indexed": false,
          "internalType": "uint256",
          "name": "amount",
          "type": "uint256"
        },
        {
          "indexed": false,
          "internalType": "uint16",
          "name": "destinationChain",
          "type": "uint16"
        },
        {
          "indexed": false,
          "internalType": "address",
          "name": "recipient",
          "type": "address"
        },
        {
          "indexed": false,
          "internalType": "uint256",
          "name": "fee",
          "type": "uint256"
        }
      ],
      "name": "SwapInitiated",
      "type": "event"
    },
    {
      "anonymous": false,
      "inputs": [
        {
          "indexed": false,
          "internalType": "uint16",
          "name": "chainId",
          "type": "uint16"
        },
        {
          "indexed": false,
          "internalType": "address",
          "name": "remote",
          "type": "address"
        },
        {
          "indexed": false,
          "internalType": "bool",
          "name": "trusted",
          "type": "bool"
        }
      ],
      "name": "TrustedRemoteUpdated",
      "type": "event"
    },
    {
      "anonymous": false,
      "inputs": [
        {
          "indexed": false,
          "internalType": "address",
          "name": "account",
          "type": "address"
        }
      ],
      "name": "Unpaused",
      "type": "event"
    },
    {
      "inputs": [],
      "name": "ADMIN_ROLE",
      "outputs": [
        {
          "internalType": "bytes32",
          "name": "",
          "type": "bytes32"
        }
      ],
      "stateMutability": "view",
      "type": "function"
    },
    {
      "inputs": [],
      "name": "DEFAULT_ADMIN_ROLE",
      "outputs": [
        {
          "internalType": "bytes32",
          "name": "",
          "type": "bytes32"
        }
      ],
      "stateMutability": "view",
      "type": "function"
    },
    {
      "inputs": [],
      "name": "DEFAULT_PAYLOAD_SIZE_LIMIT",
      "outputs": [
        {
          "internalType": "uint256",
          "name": "",
          "type": "uint256"
        }
      ],
      "stateMutability": "view",
      "type": "function"
    },
    {
      "inputs": [
        {
          "internalType": "string",
          "name": "symbol",
          "type": "string"
        },
        {
          "internalType": "uint256",
          "name": "amount",
          "type": "uint256"
        }
      ],
      "name": "addLiquidity",
      "outputs": [],
      "stateMutability": "nonpayable",
      "type": "function"
    },
    {
      "inputs": [
        {
          "internalType": "string",
          "name": "symbol",
          "type": "string"
        },
        {
          "internalType": "address",
          "name": "tokenAddress",
          "type": "address"
        }
      ],
      "name": "addSupportedToken",
      "outputs": [],
      "stateMutability": "nonpayable",
      "type": "function"
    },
    {
      "inputs": [
        {
          "internalType": "uint16",
          "name": "",
          "type": "uint16"
        },
        {
          "internalType": "bytes",
          "name": "",
          "type": "bytes"
        },
        {
          "internalType": "uint64",
          "name": "",
          "type": "uint64"
        }
      ],
      "name": "failedMessages",
      "outputs": [
        {
          "internalType": "bytes32",
          "name": "",
          "type": "bytes32"
        }
      ],
      "stateMutability": "view",
      "type": "function"
    },
    {
      "inputs": [],
      "name": "feeManager",
      "outputs": [
        {
          "internalType": "address",
          "name": "",
          "type": "address"
        }
      ],
      "stateMutability": "view",
      "type": "function"
    },
    {
      "inputs": [
        {
          "internalType": "uint16",
          "name": "_srcChainId",
          "type": "uint16"
        },
        {
          "internalType": "bytes",
          "name": "_srcAddress",
          "type": "bytes"
        }
      ],
      "name": "forceResumeReceive",
      "outputs": [],
      "stateMutability": "nonpayable",
      "type": "function"
    },
    {
      "inputs": [
        {
          "internalType": "uint16",
          "name": "_version",
          "type": "uint16"
        },
        {
          "internalType": "uint16",
          "name": "_chainId",
          "type": "uint16"
        },
        {
          "internalType": "address",
          "name": "",
          "type": "address"
        },
        {
          "internalType": "uint256",
          "name": "_configType",
          "type": "uint256"
        }
      ],
      "name": "getConfig",
      "outputs": [
        {
          "internalType": "bytes",
          "name": "",
          "type": "bytes"
        }
      ],
      "stateMutability": "view",
      "type": "function"
    },
    {
      "inputs": [
        {
          "internalType": "string",
          "name": "symbol",
          "type": "string"
        }
      ],
      "name": "getPoolBalance",
      "outputs": [
        {
          "internalType": "uint256",
          "name": "",
          "type": "uint256"
        }
      ],
      "stateMutability": "view",
      "type": "function"
    },
    {
      "inputs": [
        {
          "internalType": "bytes32",
          "name": "role",
          "type": "bytes32"
        }
      ],
      "name": "getRoleAdmin",
      "outputs": [
        {
          "internalType": "bytes32",
          "name": "",
          "type": "bytes32"
        }
      ],
      "stateMutability": "view",
      "type": "function"
    },
    {
      "inputs": [
        {
          "internalType": "uint16",
          "name": "_remoteChainId",
          "type": "uint16"
        }
      ],
      "name": "getTrustedRemoteAddress",
      "outputs": [
        {
          "internalType": "bytes",
          "name": "",
          "type": "bytes"
        }
      ],
      "stateMutability": "view",
      "type": "function"
    },
    {
      "inputs": [
        {
          "internalType": "bytes32",
          "name": "role",
          "type": "bytes32"
        },
        {
          "internalType": "address",
          "name": "account",
          "type": "address"
        }
      ],
      "name": "grantRole",
      "outputs": [],
      "stateMutability": "nonpayable",
      "type": "function"
    },
    {
      "inputs": [
        {
          "internalType": "bytes32",
          "name": "role",
          "type": "bytes32"
        },
        {
          "internalType": "address",
          "name": "account",
          "type": "address"
        }
      ],
      "name": "hasRole",
      "outputs": [
        {
          "internalType": "bool",
          "name": "",
          "type": "bool"
        }
      ],
      "stateMutability": "view",
      "type": "function"
    },
    {
      "inputs": [
        {
          "internalType": "string",
          "name": "symbol",
          "type": "string"
        },
        {
          "internalType": "uint256",
          "name": "amount",
          "type": "uint256"
        },
        {
          "internalType": "uint16",
          "name": "destinationChain",
          "type": "uint16"
        },
        {
          "internalType": "address",
          "name": "recipient",
          "type": "address"
        }
      ],
      "name": "initiateSwap",
      "outputs": [],
      "stateMutability": "payable",
      "type": "function"
    },
    {
      "inputs": [
        {
          "internalType": "string",
          "name": "symbol",
          "type": "string"
        }
      ],
      "name": "isSupported",
      "outputs": [
        {
          "internalType": "bool",
          "name": "",
          "type": "bool"
        }
      ],
      "stateMutability": "view",
      "type": "function"
    },
    {
      "inputs": [
        {
          "internalType": "uint16",
          "name": "_srcChainId",
          "type": "uint16"
        },
        {
          "internalType": "bytes",
          "name": "_srcAddress",
          "type": "bytes"
        }
      ],
      "name": "isTrustedRemote",
      "outputs": [
        {
          "internalType": "bool",
          "name": "",
          "type": "bool"
        }
      ],
      "stateMutability": "view",
      "type": "function"
    },
    {
      "inputs": [],
      "name": "lzEndpoint",
      "outputs": [
        {
          "internalType": "contract ILayerZeroEndpoint",
          "name": "",
          "type": "address"
        }
      ],
      "stateMutability": "view",
      "type": "function"
    },
    {
      "inputs": [
        {
          "internalType": "uint16",
          "name": "_srcChainId",
          "type": "uint16"
        },
        {
          "internalType": "bytes",
          "name": "_srcAddress",
          "type": "bytes"
        },
        {
          "internalType": "uint64",
          "name": "_nonce",
          "type": "uint64"
        },
        {
          "internalType": "bytes",
          "name": "_payload",
          "type": "bytes"
        }
      ],
      "name": "lzReceive",
      "outputs": [],
      "stateMutability": "nonpayable",
      "type": "function"
    },
    {
      "inputs": [],
      "name": "maxTransactionAmount",
      "outputs": [
        {
          "internalType": "uint256",
          "name": "",
          "type": "uint256"
        }
      ],
      "stateMutability": "view",
      "type": "function"
    },
    {
      "inputs": [
        {
          "internalType": "uint16",
          "name": "",
          "type": "uint16"
        },
        {
          "internalType": "uint16",
          "name": "",
          "type": "uint16"
        }
      ],
      "name": "minDstGasLookup",
      "outputs": [
        {
          "internalType": "uint256",
          "name": "",
          "type": "uint256"
        }
      ],
      "stateMutability": "view",
      "type": "function"
    },
    {
      "inputs": [
        {
          "internalType": "uint16",
          "name": "_srcChainId",
          "type": "uint16"
        },
        {
          "internalType": "bytes",
          "name": "_srcAddress",
          "type": "bytes"
        },
        {
          "internalType": "uint64",
          "name": "_nonce",
          "type": "uint64"
        },
        {
          "internalType": "bytes",
          "name": "_payload",
          "type": "bytes"
        }
      ],
      "name": "nonblockingLzReceive",
      "outputs": [],
      "stateMutability": "nonpayable",
      "type": "function"
    },
    {
      "inputs": [],
      "name": "owner",
      "outputs": [
        {
          "internalType": "address",
          "name": "",
          "type": "address"
        }
      ],
      "stateMutability": "view",
      "type": "function"
    },
    {
      "inputs": [],
      "name": "paused",
      "outputs": [
        {
          "internalType": "bool",
          "name": "",
          "type": "bool"
        }
      ],
      "stateMutability": "view",
      "type": "function"
    },
    {
      "inputs": [
        {
          "internalType": "uint16",
          "name": "",
          "type": "uint16"
        }
      ],
      "name": "payloadSizeLimitLookup",
      "outputs": [
        {
          "internalType": "uint256",
          "name": "",
          "type": "uint256"
        }
      ],
      "stateMutability": "view",
      "type": "function"
    },
    {
      "inputs": [
        {
          "internalType": "string",
          "name": "",
          "type": "string"
        }
      ],
      "name": "poolBalance",
      "outputs": [
        {
          "internalType": "uint256",
          "name": "",
          "type": "uint256"
        }
      ],
      "stateMutability": "view",
      "type": "function"
    },
    {
      "inputs": [],
      "name": "precrime",
      "outputs": [
        {
          "internalType": "address",
          "name": "",
          "type": "address"
        }
      ],
      "stateMutability": "view",
      "type": "function"
    },
    {
      "inputs": [
        {
          "internalType": "string",
          "name": "symbol",
          "type": "string"
        },
        {
          "internalType": "uint256",
          "name": "amount",
          "type": "uint256"
        }
      ],
      "name": "removeLiquidity",
      "outputs": [],
      "stateMutability": "nonpayable",
      "type": "function"
    },
    {
      "inputs": [
        {
          "internalType": "string",
          "name": "symbol",
          "type": "string"
        }
      ],
      "name": "removeSupportedToken",
      "outputs": [],
      "stateMutability": "nonpayable",
      "type": "function"
    },
    {
      "inputs": [],
      "name": "renounceOwnership",
      "outputs": [],
      "stateMutability": "nonpayable",
      "type": "function"
    },
    {
      "inputs": [
        {
          "internalType": "bytes32",
          "name": "role",
          "type": "bytes32"
        },
        {
          "internalType": "address",
          "name": "account",
          "type": "address"
        }
      ],
      "name": "renounceRole",
      "outputs": [],
      "stateMutability": "nonpayable",
      "type": "function"
    },
    {
      "inputs": [
        {
          "internalType": "uint16",
          "name": "_srcChainId",
          "type": "uint16"
        },
        {
          "internalType": "bytes",
          "name": "_srcAddress",
          "type": "bytes"
        },
        {
          "internalType": "uint64",
          "name": "_nonce",
          "type": "uint64"
        },
        {
          "internalType": "bytes",
          "name": "_payload",
          "type": "bytes"
        }
      ],
      "name": "retryMessage",
      "outputs": [],
      "stateMutability": "payable",
      "type": "function"
    },
    {
      "inputs": [
        {
          "internalType": "bytes32",
          "name": "role",
          "type": "bytes32"
        },
        {
          "internalType": "address",
          "name": "account",
          "type": "address"
        }
      ],
      "name": "revokeRole",
      "outputs": [],
      "stateMutability": "nonpayable",
      "type": "function"
    },
    {
      "inputs": [
        {
          "internalType": "uint16",
          "name": "_version",
          "type": "uint16"
        },
        {
          "internalType": "uint16",
          "name": "_chainId",
          "type": "uint16"
        },
        {
          "internalType": "uint256",
          "name": "_configType",
          "type": "uint256"
        },
        {
          "internalType": "bytes",
          "name": "_config",
          "type": "bytes"
        }
      ],
      "name": "setConfig",
      "outputs": [],
      "stateMutability": "nonpayable",
      "type": "function"
    },
    {
      "inputs": [
        {
          "internalType": "uint256",
          "name": "newAmount",
          "type": "uint256"
        }
      ],
      "name": "setMaxTransactionAmount",
      "outputs": [],
      "stateMutability": "nonpayable",
      "type": "function"
    },
    {
      "inputs": [
        {
          "internalType": "uint16",
          "name": "_dstChainId",
          "type": "uint16"
        },
        {
          "internalType": "uint16",
          "name": "_packetType",
          "type": "uint16"
        },
        {
          "internalType": "uint256",
          "name": "_minGas",
          "type": "uint256"
        }
      ],
      "name": "setMinDstGas",
      "outputs": [],
      "stateMutability": "nonpayable",
      "type": "function"
    },
    {
      "inputs": [
        {
          "internalType": "uint16",
          "name": "_dstChainId",
          "type": "uint16"
        },
        {
          "internalType": "uint256",
          "name": "_size",
          "type": "uint256"
        }
      ],
      "name": "setPayloadSizeLimit",
      "outputs": [],
      "stateMutability": "nonpayable",
      "type": "function"
    },
    {
      "inputs": [
        {
          "internalType": "address",
          "name": "_precrime",
          "type": "address"
        }
      ],
      "name": "setPrecrime",
      "outputs": [],
      "stateMutability": "nonpayable",
      "type": "function"
    },
    {
      "inputs": [
        {
          "internalType": "uint16",
          "name": "_version",
          "type": "uint16"
        }
      ],
      "name": "setReceiveVersion",
      "outputs": [],
      "stateMutability": "nonpayable",
      "type": "function"
    },
    {
      "inputs": [
        {
          "internalType": "uint16",
          "name": "_version",
          "type": "uint16"
        }
      ],
      "name": "setSendVersion",
      "outputs": [],
      "stateMutability": "nonpayable",
      "type": "function"
    },
    {
      "inputs": [
        {
          "internalType": "uint16",
          "name": "chainId",
          "type": "uint16"
        },
        {
          "internalType": "address",
          "name": "remote",
          "type": "address"
        },
        {
          "internalType": "bool",
          "name": "trusted",
          "type": "bool"
        }
      ],
      "name": "setTrustedRemote",
      "outputs": [],
      "stateMutability": "nonpayable",
      "type": "function"
    },
    {
      "inputs": [
        {
          "internalType": "uint16",
          "name": "_remoteChainId",
          "type": "uint16"
        },
        {
          "internalType": "bytes",
          "name": "_path",
          "type": "bytes"
        }
      ],
      "name": "setTrustedRemote",
      "outputs": [],
      "stateMutability": "nonpayable",
      "type": "function"
    },
    {
      "inputs": [
        {
          "internalType": "uint16",
          "name": "_remoteChainId",
          "type": "uint16"
        },
        {
          "internalType": "bytes",
          "name": "_remoteAddress",
          "type": "bytes"
        }
      ],
      "name": "setTrustedRemoteAddress",
      "outputs": [],
      "stateMutability": "nonpayable",
      "type": "function"
    },
    {
      "inputs": [
        {
          "internalType": "string",
          "name": "",
          "type": "string"
        }
      ],
      "name": "supportedTokens",
      "outputs": [
        {
          "internalType": "address",
          "name": "tokenAddress",
          "type": "address"
        },
        {
          "internalType": "bool",
          "name": "isSupported",
          "type": "bool"
        }
      ],
      "stateMutability": "view",
      "type": "function"
    },
    {
      "inputs": [
        {
          "internalType": "bytes4",
          "name": "interfaceId",
          "type": "bytes4"
        }
      ],
      "name": "supportsInterface",
      "outputs": [
        {
          "internalType": "bool",
          "name": "",
          "type": "bool"
        }
      ],
      "stateMutability": "view",
      "type": "function"
    },
    {
      "inputs": [],
      "name": "togglePause",
      "outputs": [],
      "stateMutability": "nonpayable",
      "type": "function"
    },
    {
      "inputs": [
        {
          "internalType": "address",
          "name": "newOwner",
          "type": "address"
        }
      ],
      "name": "transferOwnership",
      "outputs": [],
      "stateMutability": "nonpayable",
      "type": "function"
    },
    {
      "inputs": [
        {
          "internalType": "uint16",
          "name": "",
          "type": "uint16"
        },
        {
          "internalType": "address",
          "name": "",
          "type": "address"
        }
      ],
      "name": "trustedRemoteAddresses",
      "outputs": [
        {
          "internalType": "bool",
          "name": "",
          "type": "bool"
        }
      ],
      "stateMutability": "view",
      "type": "function"
    },
    {
      "inputs": [
        {
          "internalType": "uint16",
          "name": "",
          "type": "uint16"
        }
      ],
      "name": "trustedRemoteLookup",
      "outputs": [
        {
          "internalType": "bytes",
          "name": "",
          "type": "bytes"
        }
      ],
      "stateMutability": "view",
      "type": "function"
    }
  ],
  "bytecode": "0x60c060405264e8d4a51000600a553480156200001a57600080fd5b5060405162003d7c38038062003d7c8339810160408190526200003d91620001f8565b80806200004a33620000d7565b6001600160a01b039081166080526007805460ff19169055600160085583169050620000895760405163d92e233d60e01b815260040160405180910390fd5b6001600160a01b03821660a052620000a360003362000127565b620000cf7fa49807205ce4d355092ef5a8a18f56e8913cf4a201fbe287825b095693c217753362000127565b505062000230565b600080546001600160a01b038381166001600160a01b0319831681178455604051919092169283917f8be0079c531659141344cd1fd0a4f28419497f9722a3daafe3b4186f6b6457e09190a35050565b62000133828262000137565b5050565b60008281526006602090815260408083206001600160a01b038516845290915290205460ff16620001335760008281526006602090815260408083206001600160a01b03851684529091529020805460ff19166001179055620001973390565b6001600160a01b0316816001600160a01b0316837f2f8788117e7eff1d82e926ec794901d17c78024a50270940304540a733656f0d60405160405180910390a45050565b80516001600160a01b0381168114620001f357600080fd5b919050565b600080604083850312156200020c57600080fd5b6200021783620001db565b91506200022760208401620001db565b90509250929050565b60805160a051613ae7620002956000396000818161087c015281816112d0015261141e0152600081816107c7015281816109cf01528181610c5501528181610cfd0152818161104601528181611bac015281816120dc01526124ee0152613ae76000f3fe6080604052600436106102ad5760003560e01c80638d39b87311610175578063c4ae3168116100dc578063df2a5b3b11610095578063ed88ed6c1161006f578063ed88ed6c1461094c578063f2fde38b1461096c578063f3a014a21461098c578063f5ecbdbc146109ac57600080fd5b8063df2a5b3b146108d1578063df967f44146108f1578063eb8d72b71461092c57600080fd5b8063c4ae31681461081f578063c8c8ebe414610834578063cbed8b9c1461084a578063d0fb02031461086a578063d1deba1f1461089e578063d547741f146108b157600080fd5b80639f38369a1161012e5780639f38369a14610760578063a217fddf14610780578063a6c3d16514610795578063b353aaa7146107b5578063baf3292d146107e9578063c44618341461080957600080fd5b80638d39b873146106765780638da5cb5b146106ae57806391d14854146106e057806392543a8a14610700578063950c8a741461072057806399fcd6e41461074057600080fd5b80633f1f4fa41161021957806366ad5c8a116101d257806366ad5c8a1461054e578063715018a61461056e5780637533d7881461058357806375b238fc146105b057806389919cdd146105d25780638cfd8f5c1461063e57600080fd5b80633f1f4fa41461046757806342d65a8d14610494578063433ff288146104b45780634c0836f0146104d45780635b8c41e6146104e75780635c975abb1461053657600080fd5b80631e293c101161026b5780631e293c1014610389578063248a9ca3146103a95780632f2ff15d146103e75780633073a6001461040757806336568abe146104275780633d8b38f61461044757600080fd5b80621d3567146102b257806301ffc9a7146102d457806307e0db17146103095780630df374831461032957806310ddb13714610349578063155bf60914610369575b600080fd5b3480156102be57600080fd5b506102d26102cd366004612d67565b6109cc565b005b3480156102e057600080fd5b506102f46102ef366004612dfa565b610bfd565b60405190151581526020015b60405180910390f35b34801561031557600080fd5b506102d2610324366004612e24565b610c34565b34801561033557600080fd5b506102d2610344366004612e3f565b610cbd565b34801561035557600080fd5b506102d2610364366004612e24565b610cdc565b34801561037557600080fd5b506102d2610384366004612e8c565b610d34565b34801561039557600080fd5b506102d26103a4366004612ed5565b610e14565b3480156103b557600080fd5b506103d96103c4366004612ed5565b60009081526006602052604090206001015490565b604051908152602001610300565b3480156103f357600080fd5b506102d2610402366004612eee565b610e8a565b34801561041357600080fd5b506103d9610422366004612fe9565b610eb4565b34801561043357600080fd5b506102d2610442366004612eee565b610edc565b34801561045357600080fd5b506102f4610462366004613025565b610f5a565b34801561047357600080fd5b506103d9610482366004612e24565b60036020526000908152604090205481565b3480156104a057600080fd5b506102d26104af366004613025565b611027565b3480156104c057600080fd5b506102d26104cf366004613077565b6110ad565b6102d26104e23660046130bb565b611228565b3480156104f357600080fd5b506103d9610502366004613124565b6005602090815260009384526040808520845180860184018051928152908401958401959095209452929052825290205481565b34801561054257600080fd5b5060075460ff166102f4565b34801561055a57600080fd5b506102d2610569366004612d67565b61155e565b34801561057a57600080fd5b506102d261163a565b34801561058f57600080fd5b506105a361059e366004612e24565b61164e565b60405161030091906131e5565b3480156105bc57600080fd5b506103d9600080516020613a9283398151915281565b3480156105de57600080fd5b5061061f6105ed366004612fe9565b80516020818301810180516009825292820191909301209152546001600160a01b03811690600160a01b900460ff1682565b604080516001600160a01b039093168352901515602083015201610300565b34801561064a57600080fd5b506103d96106593660046131f8565b600260209081526000928352604080842090915290825290205481565b34801561068257600080fd5b506103d9610691366004612fe9565b8051602081830181018051600b8252928201919093012091525481565b3480156106ba57600080fd5b506000546001600160a01b03165b6040516001600160a01b039091168152602001610300565b3480156106ec57600080fd5b506102f46106fb366004612eee565b6116e8565b34801561070c57600080fd5b506102d261071b366004612fe9565b611713565b34801561072c57600080fd5b506004546106c8906001600160a01b031681565b34801561074c57600080fd5b506102d261075b366004613077565b6117c2565b34801561076c57600080fd5b506105a361077b366004612e24565b611963565b34801561078c57600080fd5b506103d9600081565b3480156107a157600080fd5b506102d26107b0366004613025565b611a72565b3480156107c157600080fd5b506106c87f000000000000000000000000000000000000000000000000000000000000000081565b3480156107f557600080fd5b506102d261080436600461322b565b611afb565b34801561081557600080fd5b506103d961271081565b34801561082b57600080fd5b506102d2611b57565b34801561084057600080fd5b506103d9600a5481565b34801561085657600080fd5b506102d2610865366004613248565b611b8d565b34801561087657600080fd5b506106c87f000000000000000000000000000000000000000000000000000000000000000081565b6102d26108ac366004612d67565b611c22565b3480156108bd57600080fd5b506102d26108cc366004612eee565b611e38565b3480156108dd57600080fd5b506102d26108ec3660046132b6565b611e5d565b3480156108fd57600080fd5b506102f461090c3660046132f2565b600c60209081526000928352604080842090915290825290205460ff1681565b34801561093857600080fd5b506102d2610947366004613025565b611ec7565b34801561095857600080fd5b506102d261096736600461331e565b611f21565b34801561097857600080fd5b506102d261098736600461322b565b612002565b34801561099857600080fd5b506102f46109a7366004612fe9565b612078565b3480156109b857600080fd5b506105a36109c7366004613364565b6120ab565b337f00000000000000000000000000000000000000000000000000000000000000006001600160a01b031614610a495760405162461bcd60e51b815260206004820152601e60248201527f4c7a4170703a20696e76616c696420656e64706f696e742063616c6c6572000060448201526064015b60405180910390fd5b61ffff861660009081526001602052604081208054610a67906133b1565b80601f0160208091040260200160405190810160405280929190818152602001828054610a93906133b1565b8015610ae05780601f10610ab557610100808354040283529160200191610ae0565b820191906000526020600020905b815481529060010190602001808311610ac357829003601f168201915b50505050509050805186869050148015610afb575060008151115b8015610b23575080516020820120604051610b1990889088906133eb565b6040518091039020145b610b7e5760405162461bcd60e51b815260206004820152602660248201527f4c7a4170703a20696e76616c696420736f757263652073656e64696e6720636f6044820152651b9d1c9858dd60d21b6064820152608401610a40565b610bf48787878080601f01602080910402602001604051908101604052809392919081815260200183838082843760009201919091525050604080516020601f8a018190048102820181019092528881528a93509150889088908190840183828082843760009201919091525061215c92505050565b50505050505050565b60006001600160e01b03198216637965db0b60e01b1480610c2e57506301ffc9a760e01b6001600160e01b03198316145b92915050565b610c3c6121d5565b6040516307e0db1760e01b815261ffff821660048201527f00000000000000000000000000000000000000000000000000000000000000006001600160a01b0316906307e0db17906024015b600060405180830381600087803b158015610ca257600080fd5b505af1158015610cb6573d6000803e3d6000fd5b5050505050565b610cc56121d5565b61ffff909116600090815260036020526040902055565b610ce46121d5565b6040516310ddb13760e01b815261ffff821660048201527f00000000000000000000000000000000000000000000000000000000000000006001600160a01b0316906310ddb13790602401610c88565b600080516020613a92833981519152610d4c8161222f565b8361ffff16600003610d7157604051633d23e4d160e11b815260040160405180910390fd5b6001600160a01b038316610d985760405163d92e233d60e01b815260040160405180910390fd5b61ffff84166000818152600c602090815260408083206001600160a01b03881680855290835292819020805460ff1916871515908117909155815194855291840192909252908201527f2f6f2a2fc32b295ed19031e65a9b33b7054522e4a0b4f7425f777675ef8cbf959060600160405180910390a150505050565b600080516020613a92833981519152610e2c8161222f565b81600003610e4d5760405163162908e360e11b815260040160405180910390fd5b600a8290556040518281527f7c1cb3702d8e1fa6d24b12dd90670ab69c6d66d58233103d37da8b07d6b850ac906020015b60405180910390a15050565b600082815260066020526040902060010154610ea58161222f565b610eaf8383612239565b505050565b6000600b82604051610ec691906133fb565b9081526020016040518091039020549050919050565b6001600160a01b0381163314610f4c5760405162461bcd60e51b815260206004820152602f60248201527f416363657373436f6e74726f6c3a2063616e206f6e6c792072656e6f756e636560448201526e103937b632b9903337b91039b2b63360891b6064820152608401610a40565b610f5682826122bf565b5050565b61ffff831660009081526001602052604081208054829190610f7b906133b1565b80601f0160208091040260200160405190810160405280929190818152602001828054610fa7906133b1565b8015610ff45780601f10610fc957610100808354040283529160200191610ff4565b820191906000526020600020905b815481529060010190602001808311610fd757829003601f168201915b50505050509050838360405161100b9291906133eb565b60405180910390208180519060200120149150505b9392505050565b61102f6121d5565b6040516342d65a8d60e01b81526001600160a01b037f000000000000000000000000000000000000000000000000000000000000000016906342d65a8d9061107f90869086908690600401613440565b600060405180830381600087803b15801561109957600080fd5b505af1158015610bf4573d6000803e3d6000fd5b6110b5612326565b6110bd61237f565b600080516020613a928339815191526110d58161222f565b6110de83612078565b6110fb5760405163350b944160e11b815260040160405180910390fd5b8160000361111c5760405163162908e360e11b815260040160405180910390fd5b60098360405161112c91906133fb565b908152604051908190036020018120546323b872dd60e01b8252336004830152306024830152604482018490526001600160a01b0316906323b872dd906064016020604051808303816000875af115801561118b573d6000803e3d6000fd5b505050506040513d601f19601f820116820180604052508101906111af919061345e565b5081600b846040516111c191906133fb565b908152602001604051809103902060008282546111de9190613491565b90915550506040517f8ad5df35d7c143065e3d394aa21ca3ce0a37f3fab9012f59b525753a7c9bd0f69061121590859085906134a4565b60405180910390a150610f566001600855565b611230612326565b61123861237f565b61124184612078565b61125e5760405163350b944160e11b815260040160405180910390fd5b82158061126c5750600a5483115b1561128a5760405163162908e360e11b815260040160405180910390fd5b6001600160a01b0381166112b15760405163d92e233d60e01b815260040160405180910390fd5b604051634594558f60e11b8152336004820152602481018490526000907f00000000000000000000000000000000000000000000000000000000000000006001600160a01b031690638b28ab1e90604401602060405180830381865afa15801561131f573d6000803e3d6000fd5b505050506040513d601f19601f8201168201806040525081019061134391906134c6565b905060006113518286613491565b905060098660405161136391906133fb565b908152604051908190036020018120546323b872dd60e01b8252336004830152306024830152604482018390526001600160a01b0316906323b872dd906064016020604051808303816000875af11580156113c2573d6000803e3d6000fd5b505050506040513d601f19601f820116820180604052508101906113e6919061345e565b5080600b876040516113f891906133fb565b908152602001604051809103902060008282546114159190613491565b925050819055507f00000000000000000000000000000000000000000000000000000000000000006001600160a01b03166328634b5d60098860405161145b91906133fb565b908152604051908190036020018120546001600160e01b031960e084901b1682526001600160a01b0316600482015260248101859052604401600060405180830381600087803b1580156114ae57600080fd5b505af11580156114c2573d6000803e3d6000fd5b5050505060008686856040516020016114dd939291906134df565b604051602081830303815290604052905061150c858233600060405180602001604052806000815250346123c5565b7fe473fba72379677cbb2565362da239a21909a8db35889b740cdc4bc5976273718787878787604051611543959493929190613512565b60405180910390a15050506115586001600855565b50505050565b3330146115bc5760405162461bcd60e51b815260206004820152602660248201527f4e6f6e626c6f636b696e674c7a4170703a2063616c6c6572206d7573742062656044820152650204c7a4170760d41b6064820152608401610a40565b6116328686868080601f01602080910402602001604051908101604052809392919081815260200183838082843760009201919091525050604080516020601f89018190048102820181019092528781528993509150879087908190840183828082843760009201919091525061256a92505050565b505050505050565b6116426121d5565b61164c600061271e565b565b60016020526000908152604090208054611667906133b1565b80601f0160208091040260200160405190810160405280929190818152602001828054611693906133b1565b80156116e05780601f106116b5576101008083540402835291602001916116e0565b820191906000526020600020905b8154815290600101906020018083116116c357829003601f168201915b505050505081565b60009182526006602090815260408084206001600160a01b0393909316845291905290205460ff1690565b600080516020613a9283398151915261172b8161222f565b600060098360405161173d91906133fb565b9081526040519081900360200181208054921515600160a01b0260ff60a01b19909316929092179091557f1e46f7298df5cdac4db00d6f0bc1327a406a48a639c854d700543d82158307be9083906009906117999083906133fb565b90815260405190819003602001812054610e7e92916001600160a01b0390911690600090613556565b6117ca612326565b6117d261237f565b600080516020613a928339815191526117ea8161222f565b6117f383612078565b6118105760405163350b944160e11b815260040160405180910390fd5b816000036118315760405163162908e360e11b815260040160405180910390fd5b600b8360405161184191906133fb565b9081526020016040518091039020548211156118705760405163bc6072f160e01b815260040160405180910390fd5b81600b8460405161188191906133fb565b9081526020016040518091039020600082825461189e9190613589565b90915550506040516009906118b49085906133fb565b9081526040519081900360200181205463a9059cbb60e01b8252336004830152602482018490526001600160a01b03169063a9059cbb906044016020604051808303816000875af115801561190d573d6000803e3d6000fd5b505050506040513d601f19601f82011682018060405250810190611931919061345e565b507f82f093529ee5285abbbcac568f061c34a807835c23bfdd70b61d36a6956be06683836040516112159291906134a4565b61ffff8116600090815260016020526040812080546060929190611986906133b1565b80601f01602080910402602001604051908101604052809291908181526020018280546119b2906133b1565b80156119ff5780601f106119d4576101008083540402835291602001916119ff565b820191906000526020600020905b8154815290600101906020018083116119e257829003601f168201915b505050505090508051600003611a575760405162461bcd60e51b815260206004820152601d60248201527f4c7a4170703a206e6f20747275737465642070617468207265636f72640000006044820152606401610a40565b611020600060148351611a6a9190613589565b83919061276e565b611a7a6121d5565b818130604051602001611a8f9392919061359c565b60408051601f1981840301815291815261ffff8516600090815260016020522090611aba9082613608565b507f8c0400cfe2d1199b1a725c78960bcc2a344d869b80590d0f2bd005db15a572ce838383604051611aee93929190613440565b60405180910390a1505050565b611b036121d5565b600480546001600160a01b0319166001600160a01b0383169081179091556040519081527f5db758e995a17ec1ad84bdef7e8c3293a0bd6179bcce400dff5d4c3d87db726b9060200160405180910390a150565b600080516020613a92833981519152611b6f8161222f565b60075460ff1615611b8557611b8261287b565b50565b611b826128cd565b611b956121d5565b6040516332fb62e760e21b81526001600160a01b037f0000000000000000000000000000000000000000000000000000000000000000169063cbed8b9c90611be990889088908890889088906004016136c7565b600060405180830381600087803b158015611c0357600080fd5b505af1158015611c17573d6000803e3d6000fd5b505050505050505050565b61ffff86166000908152600560205260408082209051611c4590889088906133eb565b90815260408051602092819003830190206001600160401b03871660009081529252902054905080611cc55760405162461bcd60e51b815260206004820152602360248201527f4e6f6e626c6f636b696e674c7a4170703a206e6f2073746f726564206d65737360448201526261676560e81b6064820152608401610a40565b808383604051611cd69291906133eb565b604051809103902014611d355760405162461bcd60e51b815260206004820152602160248201527f4e6f6e626c6f636b696e674c7a4170703a20696e76616c6964207061796c6f616044820152601960fa1b6064820152608401610a40565b61ffff87166000908152600560205260408082209051611d5890899089906133eb565b90815260408051602092819003830181206001600160401b038916600090815290845282902093909355601f88018290048202830182019052868252611df0918991899089908190840183828082843760009201919091525050604080516020601f8a018190048102820181019092528881528a93509150889088908190840183828082843760009201919091525061256a92505050565b7fc264d91f3adc5588250e1551f547752ca0cfa8f6b530d243b9f9f4cab10ea8e58787878785604051611e27959493929190613700565b60405180910390a150505050505050565b600082815260066020526040902060010154611e538161222f565b610eaf83836122bf565b611e656121d5565b61ffff83811660008181526002602090815260408083209487168084529482529182902085905581519283528201929092529081018290527f9d5c7c0b934da8fefa9c7760c98383778a12dfbfc0c3b3106518f43fb9508ac090606001611aee565b611ecf6121d5565b61ffff83166000908152600160205260409020611eed82848361373b565b507ffa41487ad5d6728f0b19276fa1eddc16558578f5109fc39d2dc33c3230470dab838383604051611aee93929190613440565b600080516020613a92833981519152611f398161222f565b6001600160a01b038216611f605760405163d92e233d60e01b815260040160405180910390fd5b6040805180820182526001600160a01b0384168152600160208201529051600990611f8c9086906133fb565b90815260405190819003602090810182208351815494909201511515600160a01b026001600160a81b03199094166001600160a01b0390921691909117929092179091557f1e46f7298df5cdac4db00d6f0bc1327a406a48a639c854d700543d82158307be90611aee9085908590600190613556565b61200a6121d5565b6001600160a01b03811661206f5760405162461bcd60e51b815260206004820152602660248201527f4f776e61626c653a206e6577206f776e657220697320746865207a65726f206160448201526564647265737360d01b6064820152608401610a40565b611b828161271e565b600060098260405161208a91906133fb565b9081526040519081900360200190205460ff600160a01b9091041692915050565b604051633d7b2f6f60e21b815261ffff808616600483015284166024820152306044820152606481018290526060907f00000000000000000000000000000000000000000000000000000000000000006001600160a01b03169063f5ecbdbc90608401600060405180830381865afa15801561212b573d6000803e3d6000fd5b505050506040513d6000823e601f3d908101601f19168201604052612153919081019061382a565b95945050505050565b6000806121bf5a60966366ad5c8a60e01b898989896040516024016121849493929190613872565b60408051601f198184030181529190526020810180516001600160e01b03166001600160e01b0319909316929092179091523092919061290a565b9150915081611632576116328686868685612994565b6000546001600160a01b0316331461164c5760405162461bcd60e51b815260206004820181905260248201527f4f776e61626c653a2063616c6c6572206973206e6f7420746865206f776e65726044820152606401610a40565b611b828133612a31565b61224382826116e8565b610f565760008281526006602090815260408083206001600160a01b03851684529091529020805460ff1916600117905561227b3390565b6001600160a01b0316816001600160a01b0316837f2f8788117e7eff1d82e926ec794901d17c78024a50270940304540a733656f0d60405160405180910390a45050565b6122c982826116e8565b15610f565760008281526006602090815260408083206001600160a01b0385168085529252808320805460ff1916905551339285917ff6391f5c32d9c69d2a47ea670b442974b53935d1edc7fd64eb21e047a839171b9190a45050565b6002600854036123785760405162461bcd60e51b815260206004820152601f60248201527f5265656e7472616e637947756172643a207265656e7472616e742063616c6c006044820152606401610a40565b6002600855565b60075460ff161561164c5760405162461bcd60e51b815260206004820152601060248201526f14185d5cd8589b194e881c185d5cd95960821b6044820152606401610a40565b61ffff8616600090815260016020526040812080546123e3906133b1565b80601f016020809104026020016040519081016040528092919081815260200182805461240f906133b1565b801561245c5780601f106124315761010080835404028352916020019161245c565b820191906000526020600020905b81548152906001019060200180831161243f57829003601f168201915b5050505050905080516000036124cd5760405162461bcd60e51b815260206004820152603060248201527f4c7a4170703a2064657374696e6174696f6e20636861696e206973206e6f742060448201526f61207472757374656420736f7572636560801b6064820152608401610a40565b6124d8878751612a8a565b60405162c5803160e81b81526001600160a01b037f0000000000000000000000000000000000000000000000000000000000000000169063c580310090849061252f908b9086908c908c908c908c906004016138b0565b6000604051808303818588803b15801561254857600080fd5b505af115801561255c573d6000803e3d6000fd5b505050505050505050505050565b601483015161ffff85166000908152600c602090815260408083206001600160a01b038516845290915290205460ff166125b757604051631553015360e31b815260040160405180910390fd5b6000806000848060200190518101906125d09190613917565b925092509250600b836040516125e691906133fb565b9081526020016040518091039020548211156126155760405163bc6072f160e01b815260040160405180910390fd5b81600b8460405161262691906133fb565b908152602001604051809103902060008282546126439190613589565b90915550506040516009906126599085906133fb565b9081526040519081900360200181205463a9059cbb60e01b82526001600160a01b03838116600484015260248301859052169063a9059cbb906044016020604051808303816000875af11580156126b4573d6000803e3d6000fd5b505050506040513d601f19601f820116820180604052508101906126d8919061345e565b507ffe547ca0d2c55506b862372e1f3d3ab264b8ff2ff2f527149dd7fd6efdec4a2a83838360405161270c939291906134df565b60405180910390a15050505050505050565b600080546001600160a01b038381166001600160a01b0319831681178455604051919092169283917f8be0079c531659141344cd1fd0a4f28419497f9722a3daafe3b4186f6b6457e09190a35050565b60608161277c81601f613491565b10156127bb5760405162461bcd60e51b815260206004820152600e60248201526d736c6963655f6f766572666c6f7760901b6044820152606401610a40565b6127c58284613491565b845110156128095760405162461bcd60e51b8152602060048201526011602482015270736c6963655f6f75744f66426f756e647360781b6044820152606401610a40565b6060821580156128285760405191506000825260208201604052612872565b6040519150601f8416801560200281840101858101878315602002848b0101015b81831015612861578051835260209283019201612849565b5050858452601f01601f1916604052505b50949350505050565b612883612afb565b6007805460ff191690557f5db9ee0a495bf2e6ff9c91a7834c1ba4fdd244a5e8aa4e537bd38aeae4b073aa335b6040516001600160a01b03909116815260200160405180910390a1565b6128d561237f565b6007805460ff191660011790557f62e78cea01bee320cd4e420270b5ea74000d11b0c9f74754ebdbfc544b05a2586128b03390565b6000606060008060008661ffff166001600160401b0381111561292f5761292f612f1e565b6040519080825280601f01601f191660200182016040528015612959576020820181803683370190505b50905060008087516020890160008d8df191503d92508683111561297b578692505b828152826000602083013e909890975095505050505050565b8180519060200120600560008761ffff1661ffff168152602001908152602001600020856040516129c591906133fb565b9081526040805191829003602090810183206001600160401b0388166000908152915220919091557fe183f33de2837795525b4792ca4cd60535bd77c53b7e7030060bfcf5734d6b0c90612a22908790879087908790879061397a565b60405180910390a15050505050565b612a3b82826116e8565b610f5657612a4881612b44565b612a53836020612b56565b604051602001612a649291906139d8565b60408051601f198184030181529082905262461bcd60e51b8252610a40916004016131e5565b61ffff821660009081526003602052604081205490819003612aab57506127105b80821115610eaf5760405162461bcd60e51b815260206004820181905260248201527f4c7a4170703a207061796c6f61642073697a6520697320746f6f206c617267656044820152606401610a40565b60075460ff1661164c5760405162461bcd60e51b815260206004820152601460248201527314185d5cd8589b194e881b9bdd081c185d5cd95960621b6044820152606401610a40565b6060610c2e6001600160a01b03831660145b60606000612b65836002613a4d565b612b70906002613491565b6001600160401b03811115612b8757612b87612f1e565b6040519080825280601f01601f191660200182016040528015612bb1576020820181803683370190505b509050600360fc1b81600081518110612bcc57612bcc613a64565b60200101906001600160f81b031916908160001a905350600f60fb1b81600181518110612bfb57612bfb613a64565b60200101906001600160f81b031916908160001a9053506000612c1f846002613a4d565b612c2a906001613491565b90505b6001811115612ca2576f181899199a1a9b1b9c1cb0b131b232b360811b85600f1660108110612c5e57612c5e613a64565b1a60f81b828281518110612c7457612c74613a64565b60200101906001600160f81b031916908160001a90535060049490941c93612c9b81613a7a565b9050612c2d565b5083156110205760405162461bcd60e51b815260206004820181905260248201527f537472696e67733a20686578206c656e67746820696e73756666696369656e746044820152606401610a40565b803561ffff81168114612d0357600080fd5b919050565b60008083601f840112612d1a57600080fd5b5081356001600160401b03811115612d3157600080fd5b602083019150836020828501011115612d4957600080fd5b9250929050565b80356001600160401b0381168114612d0357600080fd5b60008060008060008060808789031215612d8057600080fd5b612d8987612cf1565b955060208701356001600160401b0380821115612da557600080fd5b612db18a838b01612d08565b9097509550859150612dc560408a01612d50565b94506060890135915080821115612ddb57600080fd5b50612de889828a01612d08565b979a9699509497509295939492505050565b600060208284031215612e0c57600080fd5b81356001600160e01b03198116811461102057600080fd5b600060208284031215612e3657600080fd5b61102082612cf1565b60008060408385031215612e5257600080fd5b612e5b83612cf1565b946020939093013593505050565b6001600160a01b0381168114611b8257600080fd5b8015158114611b8257600080fd5b600080600060608486031215612ea157600080fd5b612eaa84612cf1565b92506020840135612eba81612e69565b91506040840135612eca81612e7e565b809150509250925092565b600060208284031215612ee757600080fd5b5035919050565b60008060408385031215612f0157600080fd5b823591506020830135612f1381612e69565b809150509250929050565b634e487b7160e01b600052604160045260246000fd5b604051601f8201601f191681016001600160401b0381118282101715612f5c57612f5c612f1e565b604052919050565b60006001600160401b03821115612f7d57612f7d612f1e565b50601f01601f191660200190565b6000612f9e612f9984612f64565b612f34565b9050828152838383011115612fb257600080fd5b828260208301376000602084830101529392505050565b600082601f830112612fda57600080fd5b61102083833560208501612f8b565b600060208284031215612ffb57600080fd5b81356001600160401b0381111561301157600080fd5b61301d84828501612fc9565b949350505050565b60008060006040848603121561303a57600080fd5b61304384612cf1565b925060208401356001600160401b0381111561305e57600080fd5b61306a86828701612d08565b9497909650939450505050565b6000806040838503121561308a57600080fd5b82356001600160401b038111156130a057600080fd5b6130ac85828601612fc9565b95602094909401359450505050565b600080600080608085870312156130d157600080fd5b84356001600160401b038111156130e757600080fd5b6130f387828801612fc9565b9450506020850135925061310960408601612cf1565b9150606085013561311981612e69565b939692955090935050565b60008060006060848603121561313957600080fd5b61314284612cf1565b925060208401356001600160401b0381111561315d57600080fd5b8401601f8101861361316e57600080fd5b61317d86823560208401612f8b565b92505061318c60408501612d50565b90509250925092565b60005b838110156131b0578181015183820152602001613198565b50506000910152565b600081518084526131d1816020860160208601613195565b601f01601f19169290920160200192915050565b60208152600061102060208301846131b9565b6000806040838503121561320b57600080fd5b61321483612cf1565b915061322260208401612cf1565b90509250929050565b60006020828403121561323d57600080fd5b813561102081612e69565b60008060008060006080868803121561326057600080fd5b61326986612cf1565b945061327760208701612cf1565b93506040860135925060608601356001600160401b0381111561329957600080fd5b6132a588828901612d08565b969995985093965092949392505050565b6000806000606084860312156132cb57600080fd5b6132d484612cf1565b92506132e260208501612cf1565b9150604084013590509250925092565b6000806040838503121561330557600080fd5b61330e83612cf1565b91506020830135612f1381612e69565b6000806040838503121561333157600080fd5b82356001600160401b0381111561334757600080fd5b61335385828601612fc9565b9250506020830135612f1381612e69565b6000806000806080858703121561337a57600080fd5b61338385612cf1565b935061339160208601612cf1565b925060408501356133a181612e69565b9396929550929360600135925050565b600181811c908216806133c557607f821691505b6020821081036133e557634e487b7160e01b600052602260045260246000fd5b50919050565b8183823760009101908152919050565b6000825161340d818460208701613195565b9190910192915050565b81835281816020850137506000828201602090810191909152601f909101601f19169091010190565b61ffff84168152604060208201526000612153604083018486613417565b60006020828403121561347057600080fd5b815161102081612e7e565b634e487b7160e01b600052601160045260246000fd5b80820180821115610c2e57610c2e61347b565b6040815260006134b760408301856131b9565b90508260208301529392505050565b6000602082840312156134d857600080fd5b5051919050565b6060815260006134f260608301866131b9565b6020830194909452506001600160a01b0391909116604090910152919050565b60a08152600061352560a08301886131b9565b60208301969096525061ffff9390931660408401526001600160a01b03919091166060830152608090910152919050565b60608152600061356960608301866131b9565b6001600160a01b0394909416602083015250901515604090910152919050565b81810381811115610c2e57610c2e61347b565b8284823760609190911b6bffffffffffffffffffffffff19169101908152601401919050565b601f821115610eaf57600081815260208120601f850160051c810160208610156135e95750805b601f850160051c820191505b81811015611632578281556001016135f5565b81516001600160401b0381111561362157613621612f1e565b6136358161362f84546133b1565b846135c2565b602080601f83116001811461366a57600084156136525750858301515b600019600386901b1c1916600185901b178555611632565b600085815260208120601f198616915b828110156136995788860151825594840194600190910190840161367a565b50858210156136b75787850151600019600388901b60f8161c191681555b5050505050600190811b01905550565b600061ffff8088168352808716602084015250846040830152608060608301526136f5608083018486613417565b979650505050505050565b61ffff8616815260806020820152600061371e608083018688613417565b6001600160401b0394909416604083015250606001529392505050565b6001600160401b0383111561375257613752612f1e565b6137668361376083546133b1565b836135c2565b6000601f84116001811461379a57600085156137825750838201355b600019600387901b1c1916600186901b178355610cb6565b600083815260209020601f19861690835b828110156137cb57868501358255602094850194600190920191016137ab565b50868210156137e85760001960f88860031b161c19848701351681555b505060018560011b0183555050505050565b6000613808612f9984612f64565b905082815283838301111561381c57600080fd5b611020836020830184613195565b60006020828403121561383c57600080fd5b81516001600160401b0381111561385257600080fd5b8201601f8101841361386357600080fd5b61301d848251602084016137fa565b61ffff8516815260806020820152600061388f60808301866131b9565b6001600160401b038516604084015282810360608401526136f581856131b9565b61ffff8716815260c0602082015260006138cd60c08301886131b9565b82810360408401526138df81886131b9565b6001600160a01b0387811660608601528616608085015283810360a0850152905061390a81856131b9565b9998505050505050505050565b60008060006060848603121561392c57600080fd5b83516001600160401b0381111561394257600080fd5b8401601f8101861361395357600080fd5b613962868251602084016137fa565b935050602084015191506040840151612eca81612e69565b61ffff8616815260a06020820152600061399760a08301876131b9565b6001600160401b038616604084015282810360608401526139b881866131b9565b905082810360808401526139cc81856131b9565b98975050505050505050565b7f416363657373436f6e74726f6c3a206163636f756e7420000000000000000000815260008351613a10816017850160208801613195565b7001034b99036b4b9b9b4b733903937b6329607d1b6017918401918201528351613a41816028840160208801613195565b01602801949350505050565b8082028115828204841417610c2e57610c2e61347b565b634e487b7160e01b600052603260045260246000fd5b600081613a8957613a8961347b565b50600019019056fea49807205ce4d355092ef5a8a18f56e8913cf4a201fbe287825b095693c21775a26469706673582212203c306dab1ea67665093b6369cfc24d8546e2bd42877d2697646c809d784f429764736f6c63430008130033",
  "linkReferences": {},
  "deployedLinkReferences": {}
}